{
  "_format": "hh-sol-artifact-1",
  "contractName": "Maze",
  "sourceName": "contracts/Maze.sol",
  "abi": [
    {
      "inputs": [
        {
          "internalType": "uint256",
          "name": "game_index",
          "type": "uint256"
        }
      ],
      "name": "EndGameNotAllowed",
      "type": "error"
    },
    {
      "inputs": [
        {
          "internalType": "uint256",
          "name": "user_bid",
          "type": "uint256"
        },
        {
          "internalType": "uint256",
          "name": "required_bid",
          "type": "uint256"
        }
      ],
      "name": "MismatchedBid",
      "type": "error"
    },
    {
      "anonymous": false,
      "inputs": [
        {
          "indexed": true,
          "internalType": "address",
          "name": "creator",
          "type": "address"
        },
        {
          "components": [
            {
              "internalType": "uint8",
              "name": "x",
              "type": "uint8"
            },
            {
              "internalType": "uint8",
              "name": "y",
              "type": "uint8"
            }
          ],
          "indexed": false,
          "internalType": "struct Maze.Point",
          "name": "pos",
          "type": "tuple"
        },
        {
          "indexed": false,
          "internalType": "uint256",
          "name": "game_index",
          "type": "uint256"
        },
        {
          "indexed": false,
          "internalType": "uint64",
          "name": "move_time",
          "type": "uint64"
        },
        {
          "indexed": false,
          "internalType": "uint8",
          "name": "move_counter",
          "type": "uint8"
        }
      ],
      "name": "GameInitialize",
      "type": "event"
    },
    {
      "anonymous": false,
      "inputs": [
        {
          "indexed": true,
          "internalType": "address",
          "name": "creator",
          "type": "address"
        },
        {
          "indexed": true,
          "internalType": "address",
          "name": "player2",
          "type": "address"
        },
        {
          "indexed": false,
          "internalType": "uint256",
          "name": "index",
          "type": "uint256"
        }
      ],
      "name": "GameJoin",
      "type": "event"
    },
    {
      "anonymous": false,
      "inputs": [
        {
          "indexed": true,
          "internalType": "address",
          "name": "previousOwner",
          "type": "address"
        },
        {
          "indexed": true,
          "internalType": "address",
          "name": "newOwner",
          "type": "address"
        }
      ],
      "name": "OwnershipTransferred",
      "type": "event"
    },
    {
      "anonymous": false,
      "inputs": [
        {
          "indexed": true,
          "internalType": "address",
          "name": "creator",
          "type": "address"
        },
        {
          "indexed": true,
          "internalType": "address",
          "name": "player2",
          "type": "address"
        },
        {
          "indexed": false,
          "internalType": "uint256",
          "name": "index",
          "type": "uint256"
        },
        {
          "components": [
            {
              "internalType": "uint8",
              "name": "x",
              "type": "uint8"
            },
            {
              "internalType": "uint8",
              "name": "y",
              "type": "uint8"
            }
          ],
          "indexed": false,
          "internalType": "struct Maze.Point",
          "name": "pos",
          "type": "tuple"
        },
        {
          "indexed": false,
          "internalType": "enum Maze.MoveResult",
          "name": "move_result",
          "type": "uint8"
        }
      ],
      "name": "PlayerMove",
      "type": "event"
    },
    {
      "anonymous": false,
      "inputs": [
        {
          "indexed": true,
          "internalType": "address",
          "name": "creator",
          "type": "address"
        },
        {
          "indexed": true,
          "internalType": "address",
          "name": "player2",
          "type": "address"
        },
        {
          "indexed": false,
          "internalType": "uint256",
          "name": "index",
          "type": "uint256"
        },
        {
          "indexed": false,
          "internalType": "address",
          "name": "winner",
          "type": "address"
        },
        {
          "indexed": false,
          "internalType": "uint256",
          "name": "amount",
          "type": "uint256"
        }
      ],
      "name": "PlayerMoveEnd",
      "type": "event"
    },
    {
      "anonymous": false,
      "inputs": [
        {
          "indexed": true,
          "internalType": "address",
          "name": "creator",
          "type": "address"
        },
        {
          "indexed": false,
          "internalType": "uint256",
          "name": "index",
          "type": "uint256"
        }
      ],
      "name": "SecretPositionCreated",
      "type": "event"
    },
    {
      "anonymous": false,
      "inputs": [
        {
          "indexed": true,
          "internalType": "address",
          "name": "creator",
          "type": "address"
        },
        {
          "components": [
            {
              "internalType": "uint8",
              "name": "x",
              "type": "uint8"
            },
            {
              "internalType": "uint8",
              "name": "y",
              "type": "uint8"
            }
          ],
          "indexed": false,
          "internalType": "struct Maze.Point",
          "name": "pos",
          "type": "tuple"
        },
        {
          "indexed": false,
          "internalType": "uint256",
          "name": "index",
          "type": "uint256"
        }
      ],
      "name": "SecretPositionRevealed",
      "type": "event"
    },
    {
      "inputs": [
        {
          "internalType": "uint256",
          "name": "",
          "type": "uint256"
        }
      ],
      "name": "_deposits",
      "outputs": [
        {
          "internalType": "uint256",
          "name": "creator_deposit",
          "type": "uint256"
        },
        {
          "internalType": "uint256",
          "name": "player2_deposit",
          "type": "uint256"
        }
      ],
      "stateMutability": "view",
      "type": "function"
    },
    {
      "inputs": [
        {
          "internalType": "uint256",
          "name": "",
          "type": "uint256"
        }
      ],
      "name": "_gameMetadatas",
      "outputs": [
        {
          "internalType": "address",
          "name": "creator",
          "type": "address"
        },
        {
          "internalType": "address",
          "name": "player2",
          "type": "address"
        },
        {
          "internalType": "address",
          "name": "winner",
          "type": "address"
        },
        {
          "components": [
            {
              "internalType": "uint8",
              "name": "x",
              "type": "uint8"
            },
            {
              "internalType": "uint8",
              "name": "y",
              "type": "uint8"
            }
          ],
          "internalType": "struct Maze.Point",
          "name": "current_pos",
          "type": "tuple"
        },
        {
          "internalType": "uint64",
          "name": "move_time",
          "type": "uint64"
        },
        {
          "internalType": "uint8",
          "name": "move_counter",
          "type": "uint8"
        },
        {
          "internalType": "uint8",
          "name": "current_move_counter",
          "type": "uint8"
        },
        {
          "internalType": "uint256",
          "name": "last_move_timestamp",
          "type": "uint256"
        },
        {
          "internalType": "uint256",
          "name": "game_index",
          "type": "uint256"
        },
        {
          "internalType": "enum Maze.GameStatus",
          "name": "status",
          "type": "uint8"
        },
        {
          "internalType": "enum Maze.BidType",
          "name": "bid_type",
          "type": "uint8"
        }
      ],
      "stateMutability": "view",
      "type": "function"
    },
    {
      "inputs": [
        {
          "internalType": "uint256",
          "name": "game_index",
          "type": "uint256"
        },
        {
          "internalType": "string",
          "name": "data",
          "type": "string"
        }
      ],
      "name": "_getMessageHash",
      "outputs": [
        {
          "internalType": "string",
          "name": "",
          "type": "string"
        }
      ],
      "stateMutability": "pure",
      "type": "function"
    },
    {
      "inputs": [
        {
          "internalType": "bytes32",
          "name": "hash",
          "type": "bytes32"
        },
        {
          "internalType": "bytes",
          "name": "signature",
          "type": "bytes"
        }
      ],
      "name": "_getSignatureAddress",
      "outputs": [
        {
          "internalType": "address",
          "name": "",
          "type": "address"
        }
      ],
      "stateMutability": "pure",
      "type": "function"
    },
    {
      "inputs": [
        {
          "internalType": "uint256",
          "name": "game_index",
          "type": "uint256"
        }
      ],
      "name": "endGame",
      "outputs": [],
      "stateMutability": "nonpayable",
      "type": "function"
    },
    {
      "inputs": [
        {
          "internalType": "uint256",
          "name": "game_index",
          "type": "uint256"
        }
      ],
      "name": "forfeitGame",
      "outputs": [],
      "stateMutability": "nonpayable",
      "type": "function"
    },
    {
      "inputs": [],
      "name": "getCurrentBalance",
      "outputs": [
        {
          "internalType": "uint256",
          "name": "",
          "type": "uint256"
        }
      ],
      "stateMutability": "view",
      "type": "function"
    },
    {
      "inputs": [
        {
          "internalType": "string",
          "name": "message",
          "type": "string"
        },
        {
          "internalType": "string",
          "name": "length",
          "type": "string"
        }
      ],
      "name": "getEthHash",
      "outputs": [
        {
          "internalType": "bytes32",
          "name": "",
          "type": "bytes32"
        }
      ],
      "stateMutability": "pure",
      "type": "function"
    },
    {
      "inputs": [
        {
          "internalType": "uint256",
          "name": "game_index",
          "type": "uint256"
        },
        {
          "internalType": "uint8",
          "name": "move_index",
          "type": "uint8"
        }
      ],
      "name": "getMoveData",
      "outputs": [
        {
          "components": [
            {
              "internalType": "bool",
              "name": "is_valid",
              "type": "bool"
            },
            {
              "components": [
                {
                  "internalType": "uint8",
                  "name": "x",
                  "type": "uint8"
                },
                {
                  "internalType": "uint8",
                  "name": "y",
                  "type": "uint8"
                }
              ],
              "internalType": "struct Maze.Point",
              "name": "from",
              "type": "tuple"
            },
            {
              "components": [
                {
                  "internalType": "uint8",
                  "name": "x",
                  "type": "uint8"
                },
                {
                  "internalType": "uint8",
                  "name": "y",
                  "type": "uint8"
                }
              ],
              "internalType": "struct Maze.Point",
              "name": "to",
              "type": "tuple"
            },
            {
              "internalType": "uint256",
              "name": "timestamp",
              "type": "uint256"
            },
            {
              "internalType": "enum Maze.MoveResult",
              "name": "move_result",
              "type": "uint8"
            }
          ],
          "internalType": "struct Maze.MoveMetadata",
          "name": "",
          "type": "tuple"
        }
      ],
      "stateMutability": "view",
      "type": "function"
    },
    {
      "inputs": [
        {
          "components": [
            {
              "internalType": "uint8",
              "name": "x",
              "type": "uint8"
            },
            {
              "internalType": "uint8",
              "name": "y",
              "type": "uint8"
            }
          ],
          "internalType": "struct Maze.Point",
          "name": "ref_point",
          "type": "tuple"
        },
        {
          "components": [
            {
              "internalType": "uint8",
              "name": "x",
              "type": "uint8"
            },
            {
              "internalType": "uint8",
              "name": "y",
              "type": "uint8"
            }
          ],
          "internalType": "struct Maze.Point",
          "name": "old_point",
          "type": "tuple"
        },
        {
          "components": [
            {
              "internalType": "uint8",
              "name": "x",
              "type": "uint8"
            },
            {
              "internalType": "uint8",
              "name": "y",
              "type": "uint8"
            }
          ],
          "internalType": "struct Maze.Point",
          "name": "new_point",
          "type": "tuple"
        }
      ],
      "name": "getMoveResult",
      "outputs": [
        {
          "internalType": "enum Maze.MoveResult",
          "name": "",
          "type": "uint8"
        }
      ],
      "stateMutability": "pure",
      "type": "function"
    },
    {
      "inputs": [
        {
          "components": [
            {
              "internalType": "uint8",
              "name": "x",
              "type": "uint8"
            },
            {
              "internalType": "uint8",
              "name": "y",
              "type": "uint8"
            }
          ],
          "internalType": "struct Maze.Point",
          "name": "p1",
          "type": "tuple"
        },
        {
          "components": [
            {
              "internalType": "uint8",
              "name": "x",
              "type": "uint8"
            },
            {
              "internalType": "uint8",
              "name": "y",
              "type": "uint8"
            }
          ],
          "internalType": "struct Maze.Point",
          "name": "p2",
          "type": "tuple"
        }
      ],
      "name": "getPointDistance",
      "outputs": [
        {
          "internalType": "uint256",
          "name": "",
          "type": "uint256"
        }
      ],
      "stateMutability": "pure",
      "type": "function"
    },
    {
      "inputs": [
        {
          "internalType": "uint256",
          "name": "game_index",
          "type": "uint256"
        },
        {
          "internalType": "string",
          "name": "data",
          "type": "string"
        },
        {
          "internalType": "bytes",
          "name": "signature",
          "type": "bytes"
        }
      ],
      "name": "getSecretPosition",
      "outputs": [
        {
          "components": [
            {
              "internalType": "uint8",
              "name": "x",
              "type": "uint8"
            },
            {
              "internalType": "uint8",
              "name": "y",
              "type": "uint8"
            }
          ],
          "internalType": "struct Maze.Point",
          "name": "",
          "type": "tuple"
        }
      ],
      "stateMutability": "view",
      "type": "function"
    },
    {
      "inputs": [
        {
          "components": [
            {
              "internalType": "uint8",
              "name": "x",
              "type": "uint8"
            },
            {
              "internalType": "uint8",
              "name": "y",
              "type": "uint8"
            }
          ],
          "internalType": "struct Maze.Point",
          "name": "p1_pos",
          "type": "tuple"
        },
        {
          "components": [
            {
              "internalType": "uint8",
              "name": "x",
              "type": "uint8"
            },
            {
              "internalType": "uint8",
              "name": "y",
              "type": "uint8"
            }
          ],
          "internalType": "struct Maze.Point",
          "name": "p2_pos",
          "type": "tuple"
        },
        {
          "internalType": "uint8",
          "name": "move_counter",
          "type": "uint8"
        },
        {
          "internalType": "uint64",
          "name": "move_time_limit",
          "type": "uint64"
        },
        {
          "internalType": "enum Maze.BidType",
          "name": "bid_type",
          "type": "uint8"
        }
      ],
      "name": "initGame",
      "outputs": [],
      "stateMutability": "payable",
      "type": "function"
    },
    {
      "inputs": [
        {
          "internalType": "uint256",
          "name": "game_index",
          "type": "uint256"
        }
      ],
      "name": "joinGame",
      "outputs": [],
      "stateMutability": "payable",
      "type": "function"
    },
    {
      "inputs": [],
      "name": "owner",
      "outputs": [
        {
          "internalType": "address",
          "name": "",
          "type": "address"
        }
      ],
      "stateMutability": "view",
      "type": "function"
    },
    {
      "inputs": [
        {
          "internalType": "uint256",
          "name": "game_index",
          "type": "uint256"
        },
        {
          "components": [
            {
              "internalType": "uint8",
              "name": "x",
              "type": "uint8"
            },
            {
              "internalType": "uint8",
              "name": "y",
              "type": "uint8"
            }
          ],
          "internalType": "struct Maze.Point",
          "name": "pos",
          "type": "tuple"
        }
      ],
      "name": "playerMove",
      "outputs": [],
      "stateMutability": "nonpayable",
      "type": "function"
    },
    {
      "inputs": [],
      "name": "renounceOwnership",
      "outputs": [],
      "stateMutability": "nonpayable",
      "type": "function"
    },
    {
      "inputs": [
        {
          "internalType": "address",
          "name": "newOwner",
          "type": "address"
        }
      ],
      "name": "transferOwnership",
      "outputs": [],
      "stateMutability": "nonpayable",
      "type": "function"
    },
    {
      "inputs": [
        {
          "internalType": "address",
          "name": "signer",
          "type": "address"
        },
        {
          "internalType": "uint256",
          "name": "game_index",
          "type": "uint256"
        },
        {
          "internalType": "string",
          "name": "data",
          "type": "string"
        },
        {
          "internalType": "bytes",
          "name": "signature",
          "type": "bytes"
        }
      ],
      "name": "verifySignature",
      "outputs": [
        {
          "internalType": "bool",
          "name": "",
          "type": "bool"
        }
      ],
      "stateMutability": "pure",
      "type": "function"
    },
    {
      "inputs": [],
      "name": "withdraw",
      "outputs": [],
      "stateMutability": "nonpayable",
      "type": "function"
    }
  ],
  "bytecode": "0x608060405260c86006553480156200001657600080fd5b50620000376200002b6200003d60201b60201c565b6200004560201b60201c565b62000109565b600033905090565b60008060009054906101000a900473ffffffffffffffffffffffffffffffffffffffff169050816000806101000a81548173ffffffffffffffffffffffffffffffffffffffff021916908373ffffffffffffffffffffffffffffffffffffffff1602179055508173ffffffffffffffffffffffffffffffffffffffff168173ffffffffffffffffffffffffffffffffffffffff167f8be0079c531659141344cd1fd0a4f28419497f9722a3daafe3b4186f6b6457e060405160405180910390a35050565b614cf680620001196000396000f3fe60806040526004361061011f5760003560e01c8063a8bfc077116100a0578063d0399bb811610064578063d0399bb814610409578063e58b7bc214610432578063efaa55a01461046f578063f263828b1461048b578063f2fde38b146104c85761011f565b8063a8bfc077146102f9578063af54322114610336578063b510135814610373578063bdb5c2ec146103b0578063c555196f146103ed5761011f565b80638da5cb5b116100e75780638da5cb5b146101f65780639509fb921461022157806398be22f714610268578063a154170314610291578063a5749710146102ce5761011f565b8063260486da146101245780633b9d08d9146101615780633ccfd60b1461019f578063715018a6146101b65780637768cfe9146101cd575b600080fd5b34801561013057600080fd5b5061014b60048036038101906101469190613138565b6104f1565b60405161015891906132bf565b60405180910390f35b34801561016d57600080fd5b50610188600480360381019061018391906132da565b610632565b604051610196929190613316565b60405180910390f35b3480156101ab57600080fd5b506101b4610656565b005b3480156101c257600080fd5b506101cb61076d565b005b3480156101d957600080fd5b506101f460048036038101906101ef9190613363565b610781565b005b34801561020257600080fd5b5061020b610e30565b60405161021891906133e4565b60405180910390f35b34801561022d57600080fd5b50610248600480360381019061024391906132da565b610e59565b60405161025f9b9a999897969594939291906134f0565b60405180910390f35b34801561027457600080fd5b5061028f600480360381019061028a91906132da565b610f9f565b005b34801561029d57600080fd5b506102b860048036038101906102b3919061367d565b611295565b6040516102c591906136df565b60405180910390f35b3480156102da57600080fd5b506102e3611308565b6040516102f091906136fa565b60405180910390f35b34801561030557600080fd5b50610320600480360381019061031b919061377a565b611310565b60405161032d9190613859565b60405180910390f35b34801561034257600080fd5b5061035d60048036038101906103589190613907565b611356565b60405161036a91906133e4565b60405180910390f35b34801561037f57600080fd5b5061039a60048036038101906103959190613a1c565b611410565b6040516103a79190613aa3565b60405180910390f35b3480156103bc57600080fd5b506103d760048036038101906103d29190613abe565b611485565b6040516103e491906136fa565b60405180910390f35b61040760048036038101906104029190613b4f565b611543565b005b34801561041557600080fd5b50610430600480360381019061042b91906132da565b611b1e565b005b34801561043e57600080fd5b5061045960048036038101906104549190613bf6565b611e2c565b6040516104669190613cac565b60405180910390f35b610489600480360381019061048491906132da565b611f6b565b005b34801561049757600080fd5b506104b260048036038101906104ad9190613cc7565b612361565b6040516104bf9190613d5c565b60405180910390f35b3480156104d457600080fd5b506104ef60048036038101906104ea9190613d77565b6124db565b005b6104f961303c565b6004600084815260200190815260200160002060080160008360ff1681526020019081526020016000206040518060a00160405290816000820160009054906101000a900460ff16151515158152602001600182016040518060400160405290816000820160009054906101000a900460ff1660ff1660ff1681526020016000820160019054906101000a900460ff1660ff1660ff16815250508152602001600282016040518060400160405290816000820160009054906101000a900460ff1660ff1660ff1681526020016000820160019054906101000a900460ff1660ff1660ff16815250508152602001600382015481526020016004820160009054906101000a900460ff166003811115610614576106136131e0565b5b6003811115610626576106256131e0565b5b81525050905092915050565b60056020528060005260406000206000915090508060000154908060010154905082565b61065e61255e565b60006002549050600081116106a8576040517f08c379a000000000000000000000000000000000000000000000000000000000815260040161069f90613e16565b60405180910390fd5b600060028190555060006106ba610e30565b905060008173ffffffffffffffffffffffffffffffffffffffff16836040516106e290613e67565b60006040518083038185875af1925050503d806000811461071f576040519150601f19603f3d011682016040523d82523d6000602084013e610724565b606091505b5050905080610768576040517f08c379a000000000000000000000000000000000000000000000000000000000815260040161075f90613ec8565b60405180910390fd5b505050565b61077561255e565b61077f60006125dc565b565b60015482106107c5576040517f08c379a00000000000000000000000000000000000000000000000000000000081526004016107bc90613f34565b60405180910390fd5b600160028111156107d9576107d86131e0565b5b6004600084815260200190815260200160002060070160009054906101000a900460ff16600281111561080f5761080e6131e0565b5b1461084f576040517f08c379a000000000000000000000000000000000000000000000000000000000815260040161084690613fa0565b60405180910390fd5b6004600083815260200190815260200160002060040160089054906101000a900460ff1660ff166004600084815260200190815260200160002060040160099054906101000a900460ff1660ff16106108dd576040517f08c379a00000000000000000000000000000000000000000000000000000000081526004016108d49061400c565b60405180910390fd5b60006004600084815260200190815260200160002060040160099054906101000a900460ff16905060006004600085815260200190815260200160002060040160009054906101000a900467ffffffffffffffff1667ffffffffffffffff16600460008681526020019081526020016000206005015461095d919061405b565b90506109d56040518060400160405280600a81526020017f74696d655f6c696d697400000000000000000000000000000000000000000000815250826040518060400160405280601081526020017f626c6f636b2e74696d657374616d702000000000000000000000000000000000815250426126a0565b80421115610a2457610a1d846004600087815260200190815260200160002060000160009054906101000a900473ffffffffffffffffffffffffffffffffffffffff16612742565b5050610e2c565b60016004600086815260200190815260200160002060080160008460ff16815260200190815260200160002060000160006101000a81548160ff021916908315150217905550600460008581526020019081526020016000206003016004600086815260200190815260200160002060080160008460ff1681526020019081526020016000206001016000820160009054906101000a900460ff168160000160006101000a81548160ff021916908360ff1602179055506000820160019054906101000a900460ff168160000160016101000a81548160ff021916908360ff160217905550905050826004600086815260200190815260200160002060080160008460ff1681526020019081526020016000206002018181610b4691906141c8565b905050426004600086815260200190815260200160002060080160008460ff16815260200190815260200160002060030181905550426004600086815260200190815260200160002060050181905550610c55600360008681526020019081526020016000206000016040518060400160405290816000820160009054906101000a900460ff1660ff1660ff1681526020016000820160019054906101000a900460ff1660ff1660ff1681525050600460008781526020019081526020016000206003016040518060400160405290816000820160009054906101000a900460ff1660ff1660ff1681526020016000820160019054906101000a900460ff1660ff1660ff168152505085611295565b6004600086815260200190815260200160002060080160008460ff16815260200190815260200160002060040160006101000a81548160ff02191690836003811115610ca457610ca36131e0565b5b021790555082600460008681526020019081526020016000206003018181610ccc91906141c8565b9050506004600085815260200190815260200160002060010160009054906101000a900473ffffffffffffffffffffffffffffffffffffffff1673ffffffffffffffffffffffffffffffffffffffff166004600086815260200190815260200160002060000160009054906101000a900473ffffffffffffffffffffffffffffffffffffffff1673ffffffffffffffffffffffffffffffffffffffff167f23f9e36a4a696b9ce7fabe7cf49b72028c7e492bba0b5167575bcb2f69b337e38686600460008a815260200190815260200160002060080160008860ff16815260200190815260200160002060040160009054906101000a900460ff16604051610dd69392919061422c565b60405180910390a360016004600086815260200190815260200160002060040160098282829054906101000a900460ff16610e119190614263565b92506101000a81548160ff021916908360ff16021790555050505b5050565b60008060009054906101000a900473ffffffffffffffffffffffffffffffffffffffff16905090565b60046020528060005260406000206000915090508060000160009054906101000a900473ffffffffffffffffffffffffffffffffffffffff16908060010160009054906101000a900473ffffffffffffffffffffffffffffffffffffffff16908060020160009054906101000a900473ffffffffffffffffffffffffffffffffffffffff1690806003016040518060400160405290816000820160009054906101000a900460ff1660ff1660ff1681526020016000820160019054906101000a900460ff1660ff1660ff1681525050908060040160009054906101000a900467ffffffffffffffff16908060040160089054906101000a900460ff16908060040160099054906101000a900460ff16908060050154908060060154908060070160009054906101000a900460ff16908060070160019054906101000a900460ff1690508b565b6001548110610fe3576040517f08c379a0000000000000000000000000000000000000000000000000000000008152600401610fda90613f34565b60405180910390fd5b6004600082815260200190815260200160002060000160009054906101000a900473ffffffffffffffffffffffffffffffffffffffff1673ffffffffffffffffffffffffffffffffffffffff163373ffffffffffffffffffffffffffffffffffffffff1614806110b457506004600082815260200190815260200160002060010160009054906101000a900473ffffffffffffffffffffffffffffffffffffffff1673ffffffffffffffffffffffffffffffffffffffff163373ffffffffffffffffffffffffffffffffffffffff16145b6110f3576040517f08c379a00000000000000000000000000000000000000000000000000000000081526004016110ea9061430a565b60405180910390fd5b6004600082815260200190815260200160002060000160009054906101000a900473ffffffffffffffffffffffffffffffffffffffff1673ffffffffffffffffffffffffffffffffffffffff163373ffffffffffffffffffffffffffffffffffffffff160361125157600073ffffffffffffffffffffffffffffffffffffffff166004600083815260200190815260200160002060010160009054906101000a900473ffffffffffffffffffffffffffffffffffffffff1673ffffffffffffffffffffffffffffffffffffffff160361120b57611206816004600084815260200190815260200160002060000160009054906101000a900473ffffffffffffffffffffffffffffffffffffffff16612742565b61124c565b61124b816004600084815260200190815260200160002060010160009054906101000a900473ffffffffffffffffffffffffffffffffffffffff16612742565b5b611292565b611291816004600084815260200190815260200160002060000160009054906101000a900473ffffffffffffffffffffffffffffffffffffffff16612742565b5b50565b6000806112a28585611485565b905060006112c086858036038101906112bb919061432a565b611485565b9050600081036112d557600292505050611301565b8181036112e757600392505050611301565b818110156112fa57600092505050611301565b6001925050505b9392505050565b600047905090565b606061134d61134884848760405160200161132d939291906143a8565b60405160208183030381529060405280519060200120612b2f565b612b6e565b90509392505050565b6000806000806113a986868080601f016020809104026020016040519081016040528093929190818152602001838380828437600081840152601f19601f82011690508083019250505050505050612d26565b9250925092506000600188838686604051600081526020016040526040516113d494939291906143d2565b6020604051602081039080840390855afa1580156113f6573d6000803e3d6000fd5b505050602060405103519050809450505050509392505050565b6000806040518060400160405280601a81526020017f19457468657265756d205369676e6564204d6573736167653a0a0000000000008152509050600081848660405160200161146293929190614484565b604051602081830303815290604052805190602001209050809250505092915050565b600080826000015160ff16846000015160ff16116114b657836000015183600001516114b191906144b5565b6114cb565b826000015184600001516114ca91906144b5565b5b90506000836020015160ff16856020015160ff16116114fd57846020015184602001516114f891906144b5565b611512565b8360200151856020015161151191906144b5565b5b9050808161152091906144ea565b828361152c91906144ea565b6115369190614263565b60ff169250505092915050565b3360046000600154815260200190815260200160002060000160006101000a81548173ffffffffffffffffffffffffffffffffffffffff021916908373ffffffffffffffffffffffffffffffffffffffff160217905550600060046000600154815260200190815260200160002060010160006101000a81548173ffffffffffffffffffffffffffffffffffffffff021916908373ffffffffffffffffffffffffffffffffffffffff16021790555083600460006001548152602001908152602001600020600301818161161791906141c8565b9050508160046000600154815260200190815260200160002060040160006101000a81548167ffffffffffffffff021916908367ffffffffffffffff1602179055508260046000600154815260200190815260200160002060040160086101000a81548160ff021916908360ff160217905550600060046000600154815260200190815260200160002060040160096101000a81548160ff021916908360ff160217905550600060046000600154815260200190815260200160002060070160006101000a81548160ff021916908360028111156116f8576116f76131e0565b5b02179055504260046000600154815260200190815260200160002060050181905550600060046000600154815260200190815260200160002060020160006101000a81548173ffffffffffffffffffffffffffffffffffffffff021916908373ffffffffffffffffffffffffffffffffffffffff1602179055508060046000600154815260200190815260200160002060070160016101000a81548160ff021916908360028111156117ad576117ac6131e0565b5b02179055506001546004600060015481526020019081526020016000206006018190555060405180604001604052803481526020016000815250600560006001548152602001908152602001600020600082015181600001556020820151816001015590505061181b61303c565b60008160000190151590811515815250506040518060400160405280600060ff168152602001600060ff1681525081602001819052506040518060400160405280600060ff168152602001600060ff168152508160400181905250600081606001818152505060038160800190600381111561189a576118996131e0565b5b908160038111156118ae576118ad6131e0565b5b8152505080600460006001548152602001908152602001600020600801600080815260200190815260200160002060008201518160000160006101000a81548160ff02191690831515021790555060208201518160010160008201518160000160006101000a81548160ff021916908360ff16021790555060208201518160000160016101000a81548160ff021916908360ff160217905550505060408201518160020160008201518160000160006101000a81548160ff021916908360ff16021790555060208201518160000160016101000a81548160ff021916908360ff16021790555050506060820151816003015560808201518160040160006101000a81548160ff021916908360038111156119cb576119ca6131e0565b5b02179055509050506040518060200160405280878036038101906119ef919061432a565b81525060036000600154815260200190815260200160002060008201518160000160008201518160000160006101000a81548160ff021916908360ff16021790555060208201518160000160016101000a81548160ff021916908360ff16021790555050509050503373ffffffffffffffffffffffffffffffffffffffff167f7283dbfe66796d0cdee82733e89fd38da15d4bce8bcd805e8ba8facfa4617615600154604051611a9f91906136fa565b60405180910390a23373ffffffffffffffffffffffffffffffffffffffff167f3d5b3ae9a74fa0a138da3d60328e4134c05f774f81013eae377e964158c73dc1866001548688604051611af59493929190614527565b60405180910390a26001806000828254611b0f919061405b565b92505081905550505050505050565b6001548110611b62576040517f08c379a0000000000000000000000000000000000000000000000000000000008152600401611b5990613f34565b60405180910390fd5b60016002811115611b7657611b756131e0565b5b6004600083815260200190815260200160002060070160009054906101000a900460ff166002811115611bac57611bab6131e0565b5b14611bec576040517f08c379a0000000000000000000000000000000000000000000000000000000008152600401611be390613fa0565b60405180910390fd5b60006004600083815260200190815260200160002060040160099054906101000a900460ff16905060006004600084815260200190815260200160002060040160089054906101000a900460ff1690508060ff168260ff1610611c9057611c89836004600086815260200190815260200160002060000160009054906101000a900473ffffffffffffffffffffffffffffffffffffffff16612742565b5050611e29565b60026003811115611ca457611ca36131e0565b5b600460008581526020019081526020016000206008016000600185611cc991906144b5565b60ff16815260200190815260200160002060040160009054906101000a900460ff166003811115611cfd57611cfc6131e0565b5b03611d4957611d42836004600086815260200190815260200160002060010160009054906101000a900473ffffffffffffffffffffffffffffffffffffffff16612742565b5050611e29565b60006004600085815260200190815260200160002060040160009054906101000a900467ffffffffffffffff1667ffffffffffffffff166004600086815260200190815260200160002060050154611da1919061405b565b905080421115611dec57611deb846004600087815260200190815260200160002060000160009054906101000a900473ffffffffffffffffffffffffffffffffffffffff16612742565b5b836040517f166ff8af000000000000000000000000000000000000000000000000000000008152600401611e2091906136fa565b60405180910390fd5b50565b600080611e3a878787611310565b90506000611e7d826040518060400160405280600281526020017f3636000000000000000000000000000000000000000000000000000000000000815250611410565b90506000806000611ed188888080601f016020809104026020016040519081016040528093929190818152602001838380828437600081840152601f19601f82011690508083019250505050505050612d26565b925092509250600060018583868660405160008152602001604052604051611efc94939291906143d2565b6020604051602081039080840390855afa158015611f1e573d6000803e3d6000fd5b5050506020604051035190508c73ffffffffffffffffffffffffffffffffffffffff168173ffffffffffffffffffffffffffffffffffffffff161496505050505050509695505050505050565b6001548110611faf576040517f08c379a0000000000000000000000000000000000000000000000000000000008152600401611fa690613f34565b60405180910390fd5b60006002811115611fc357611fc26131e0565b5b6004600083815260200190815260200160002060070160009054906101000a900460ff166002811115611ff957611ff86131e0565b5b14612039576040517f08c379a0000000000000000000000000000000000000000000000000000000008152600401612030906145b8565b60405180910390fd5b3373ffffffffffffffffffffffffffffffffffffffff166004600083815260200190815260200160002060000160009054906101000a900473ffffffffffffffffffffffffffffffffffffffff1673ffffffffffffffffffffffffffffffffffffffff16036120dd576040517f08c379a00000000000000000000000000000000000000000000000000000000081526004016120d49061464a565b60405180910390fd5b60016004600083815260200190815260200160002060070160006101000a81548160ff02191690836002811115612117576121166131e0565b5b0217905550336004600083815260200190815260200160002060010160006101000a81548173ffffffffffffffffffffffffffffffffffffffff021916908373ffffffffffffffffffffffffffffffffffffffff16021790555042600460008381526020019081526020016000206005018190555060006005600083815260200190815260200160002060000154905060008060028111156121bc576121bb6131e0565b5b6004600085815260200190815260200160002060070160019054906101000a900460ff1660028111156121f2576121f16131e0565b5b1461225f576001600281111561220b5761220a6131e0565b5b6004600085815260200190815260200160002060070160019054906101000a900460ff166002811115612241576122406131e0565b5b1461224c578161225a565b6002826122599190614699565b5b612262565b60005b90508034146122a6576040517f08c379a000000000000000000000000000000000000000000000000000000000815260040161229d9061473c565b60405180910390fd5b3460056000858152602001908152602001600020600101819055503373ffffffffffffffffffffffffffffffffffffffff166004600085815260200190815260200160002060000160009054906101000a900473ffffffffffffffffffffffffffffffffffffffff1673ffffffffffffffffffffffffffffffffffffffff167f50f74e3d0024abf2216a0961725af3ef0fc07055820298413d89eb8fc3194fca8560405161235491906136fa565b60405180910390a3505050565b61236961308b565b60015486106123ad576040517f08c379a00000000000000000000000000000000000000000000000000000000081526004016123a4906147a8565b60405180910390fd5b60006004600088815260200190815260200160002090506002808111156123d7576123d66131e0565b5b8160070160009054906101000a900460ff1660028111156123fb576123fa6131e0565b5b148061243557506124348160000160009054906101000a900473ffffffffffffffffffffffffffffffffffffffff168888888888611e2c565b5b612474576040517f08c379a000000000000000000000000000000000000000000000000000000000815260040161246b90614814565b60405180910390fd5b600360008881526020019081526020016000206000016040518060400160405290816000820160009054906101000a900460ff1660ff1660ff1681526020016000820160019054906101000a900460ff1660ff1660ff168152505091505095945050505050565b6124e361255e565b600073ffffffffffffffffffffffffffffffffffffffff168173ffffffffffffffffffffffffffffffffffffffff1603612552576040517f08c379a0000000000000000000000000000000000000000000000000000000008152600401612549906148a6565b60405180910390fd5b61255b816125dc565b50565b612566612d8e565b73ffffffffffffffffffffffffffffffffffffffff16612584610e30565b73ffffffffffffffffffffffffffffffffffffffff16146125da576040517f08c379a00000000000000000000000000000000000000000000000000000000081526004016125d190614912565b60405180910390fd5b565b60008060009054906101000a900473ffffffffffffffffffffffffffffffffffffffff169050816000806101000a81548173ffffffffffffffffffffffffffffffffffffffff021916908373ffffffffffffffffffffffffffffffffffffffff1602179055508173ffffffffffffffffffffffffffffffffffffffff168173ffffffffffffffffffffffffffffffffffffffff167f8be0079c531659141344cd1fd0a4f28419497f9722a3daafe3b4186f6b6457e060405160405180910390a35050565b61273c848484846040516024016126ba9493929190614932565b6040516020818303038152906040527fc67ea9d1000000000000000000000000000000000000000000000000000000007bffffffffffffffffffffffffffffffffffffffffffffffffffffffff19166020820180517bffffffffffffffffffffffffffffffffffffffffffffffffffffffff8381831617835250505050612d96565b50505050565b60026004600084815260200190815260200160002060070160006101000a81548160ff0219169083600281111561277c5761277b6131e0565b5b0217905550806004600084815260200190815260200160002060020160006101000a81548173ffffffffffffffffffffffffffffffffffffffff021916908373ffffffffffffffffffffffffffffffffffffffff1602179055506000600160028111156127ec576127eb6131e0565b5b6004600085815260200190815260200160002060070160019054906101000a900460ff166002811115612822576128216131e0565b5b036128895761271060065461271061283a9190614985565b60056000868152602001908152602001600020600101546005600087815260200190815260200160002060000154612872919061405b565b61287c91906149b9565b6128869190614699565b90505b612710600654600560008681526020019081526020016000206001015460056000878152602001908152602001600020600001546128c7919061405b565b6128d191906149b9565b6128db9190614699565b6002546128e8919061405b565b60028190555060056000848152602001908152602001600020600101546005600085815260200190815260200160002060000154612926919061405b565b811115612968576040517f08c379a000000000000000000000000000000000000000000000000000000000815260040161295f90614a47565b60405180910390fd5b6000811115612a1f5760008273ffffffffffffffffffffffffffffffffffffffff168260405161299790613e67565b60006040518083038185875af1925050503d80600081146129d4576040519150601f19603f3d011682016040523d82523d6000602084013e6129d9565b606091505b5050905080612a1d576040517f08c379a0000000000000000000000000000000000000000000000000000000008152600401612a1490614ab3565b60405180910390fd5b505b6004600084815260200190815260200160002060010160009054906101000a900473ffffffffffffffffffffffffffffffffffffffff1673ffffffffffffffffffffffffffffffffffffffff166004600085815260200190815260200160002060000160009054906101000a900473ffffffffffffffffffffffffffffffffffffffff1673ffffffffffffffffffffffffffffffffffffffff167f8d434dc1a961654b694dfc1dec7f0fc2616d4d8370564097907a4d932001fd1d856004600088815260200190815260200160002060020160009054906101000a900473ffffffffffffffffffffffffffffffffffffffff1685604051612b2293929190614ad3565b60405180910390a3505050565b6060612b3a82612db0565b612b47608084901b612db0565b604051602001612b58929190614b77565b6040516020818303038152906040529050919050565b606060008290506000815167ffffffffffffffff811115612b9257612b916135b2565b5b6040519080825280601f01601f191660200182016040528015612bc45781602001600182028036833780820191505090505b50905060005b8251811015612d1b576041838281518110612be857612be7614bae565b5b602001015160f81c60f81b60f81c60ff1610158015612c2b5750605a838281518110612c1757612c16614bae565b5b602001015160f81c60f81b60f81c60ff1611155b15612ca7576020838281518110612c4557612c44614bae565b5b602001015160f81c60f81b60f81c612c5d9190614263565b60f81b828281518110612c7357612c72614bae565b5b60200101907effffffffffffffffffffffffffffffffffffffffffffffffffffffffffffff1916908160001a905350612d08565b828181518110612cba57612cb9614bae565b5b602001015160f81c60f81b828281518110612cd857612cd7614bae565b5b60200101907effffffffffffffffffffffffffffffffffffffffffffffffffffffffffffff1916908160001a9053505b8080612d1390614bdd565b915050612bca565b508092505050919050565b60008060006041845114612d6f576040517f08c379a0000000000000000000000000000000000000000000000000000000008152600401612d6690614c71565b60405180910390fd5b6020840151925060408401519150606084015160001a90509193909250565b600033905090565b612dad81612da5613010613031565b63ffffffff16565b50565b6000604077ffffffffffffffff0000000000000000000000000000000060001b836fffffffffffffffffffffffffffffffff191616901c7fffffffffffffffff00000000000000000000000000000000000000000000000060001b836fffffffffffffffffffffffffffffffff19161617905060207bffffffff000000000000000000000000ffffffff000000000000000060001b8216901c7fffffffff000000000000000000000000ffffffff00000000000000000000000060001b821617905060107dffff000000000000ffff000000000000ffff000000000000ffff0000000060001b8216901c7fffff000000000000ffff000000000000ffff000000000000ffff00000000000060001b821617905060087eff000000ff000000ff000000ff000000ff000000ff000000ff000000ff000060001b8216901c7fff000000ff000000ff000000ff000000ff000000ff000000ff000000ff00000060001b821617905060087f0f000f000f000f000f000f000f000f000f000f000f000f000f000f000f000f0060001b8216901c60047ff000f000f000f000f000f000f000f000f000f000f000f000f000f000f000f00060001b8316901c17905060077f0f0f0f0f0f0f0f0f0f0f0f0f0f0f0f0f0f0f0f0f0f0f0f0f0f0f0f0f0f0f0f0f60047f06060606060606060606060606060606060606060606060606060606060606068460001c612fc0919061405b565b901c16612fcd91906149b9565b8160001c7f3030303030303030303030303030303030303030303030303030303030303030612ffc919061405b565b613006919061405b565b60001b9050919050565b60006a636f6e736f6c652e6c6f679050600080835160208501845afa505050565b6130ab819050919050565b6040518060a0016040528060001515815260200161305861308b565b815260200161306561308b565b81526020016000815260200160006003811115613085576130846131e0565b5b81525090565b6040518060400160405280600060ff168152602001600060ff1681525090565b6130b3614c91565b565b6000604051905090565b600080fd5b600080fd5b6000819050919050565b6130dc816130c9565b81146130e757600080fd5b50565b6000813590506130f9816130d3565b92915050565b600060ff82169050919050565b613115816130ff565b811461312057600080fd5b50565b6000813590506131328161310c565b92915050565b6000806040838503121561314f5761314e6130bf565b5b600061315d858286016130ea565b925050602061316e85828601613123565b9150509250929050565b60008115159050919050565b61318d81613178565b82525050565b61319c816130ff565b82525050565b6040820160008201516131b86000850182613193565b5060208201516131cb6020850182613193565b50505050565b6131da816130c9565b82525050565b7f4e487b7100000000000000000000000000000000000000000000000000000000600052602160045260246000fd5b600481106132205761321f6131e0565b5b50565b60008190506132318261320f565b919050565b600061324182613223565b9050919050565b61325181613236565b82525050565b60e08201600082015161326d6000850182613184565b50602082015161328060208501826131a2565b50604082015161329360608501826131a2565b5060608201516132a660a08501826131d1565b5060808201516132b960c0850182613248565b50505050565b600060e0820190506132d46000830184613257565b92915050565b6000602082840312156132f0576132ef6130bf565b5b60006132fe848285016130ea565b91505092915050565b613310816130c9565b82525050565b600060408201905061332b6000830185613307565b6133386020830184613307565b9392505050565b600080fd5b60006040828403121561335a5761335961333f565b5b81905092915050565b6000806060838503121561337a576133796130bf565b5b6000613388858286016130ea565b925050602061339985828601613344565b9150509250929050565b600073ffffffffffffffffffffffffffffffffffffffff82169050919050565b60006133ce826133a3565b9050919050565b6133de816133c3565b82525050565b60006020820190506133f960008301846133d5565b92915050565b6040820160008201516134156000850182613193565b5060208201516134286020850182613193565b50505050565b600067ffffffffffffffff82169050919050565b61344b8161342e565b82525050565b61345a816130ff565b82525050565b60038110613471576134706131e0565b5b50565b600081905061348282613460565b919050565b600061349282613474565b9050919050565b6134a281613487565b82525050565b600381106134b9576134b86131e0565b5b50565b60008190506134ca826134a8565b919050565b60006134da826134bc565b9050919050565b6134ea816134cf565b82525050565b600061018082019050613506600083018e6133d5565b613513602083018d6133d5565b613520604083018c6133d5565b61352d606083018b6133ff565b61353a60a083018a613442565b61354760c0830189613451565b61355460e0830188613451565b613562610100830187613307565b613570610120830186613307565b61357e610140830185613499565b61358c6101608301846134e1565b9c9b505050505050505050505050565b600080fd5b6000601f19601f8301169050919050565b7f4e487b7100000000000000000000000000000000000000000000000000000000600052604160045260246000fd5b6135ea826135a1565b810181811067ffffffffffffffff82111715613609576136086135b2565b5b80604052505050565b600061361c6130b5565b905061362882826135e1565b919050565b6000604082840312156136435761364261359c565b5b61364d6040613612565b9050600061365d84828501613123565b600083015250602061367184828501613123565b60208301525092915050565b600080600060c08486031215613696576136956130bf565b5b60006136a48682870161362d565b93505060406136b58682870161362d565b92505060806136c686828701613344565b9150509250925092565b6136d981613236565b82525050565b60006020820190506136f460008301846136d0565b92915050565b600060208201905061370f6000830184613307565b92915050565b600080fd5b600080fd5b600080fd5b60008083601f84011261373a57613739613715565b5b8235905067ffffffffffffffff8111156137575761375661371a565b5b6020830191508360018202830111156137735761377261371f565b5b9250929050565b600080600060408486031215613793576137926130bf565b5b60006137a1868287016130ea565b935050602084013567ffffffffffffffff8111156137c2576137c16130c4565b5b6137ce86828701613724565b92509250509250925092565b600081519050919050565b600082825260208201905092915050565b60005b838110156138145780820151818401526020810190506137f9565b60008484015250505050565b600061382b826137da565b61383581856137e5565b93506138458185602086016137f6565b61384e816135a1565b840191505092915050565b600060208201905081810360008301526138738184613820565b905092915050565b6000819050919050565b61388e8161387b565b811461389957600080fd5b50565b6000813590506138ab81613885565b92915050565b60008083601f8401126138c7576138c6613715565b5b8235905067ffffffffffffffff8111156138e4576138e361371a565b5b602083019150836001820283011115613900576138ff61371f565b5b9250929050565b6000806000604084860312156139205761391f6130bf565b5b600061392e8682870161389c565b935050602084013567ffffffffffffffff81111561394f5761394e6130c4565b5b61395b868287016138b1565b92509250509250925092565b600080fd5b600067ffffffffffffffff821115613987576139866135b2565b5b613990826135a1565b9050602081019050919050565b82818337600083830152505050565b60006139bf6139ba8461396c565b613612565b9050828152602081018484840111156139db576139da613967565b5b6139e684828561399d565b509392505050565b600082601f830112613a0357613a02613715565b5b8135613a138482602086016139ac565b91505092915050565b60008060408385031215613a3357613a326130bf565b5b600083013567ffffffffffffffff811115613a5157613a506130c4565b5b613a5d858286016139ee565b925050602083013567ffffffffffffffff811115613a7e57613a7d6130c4565b5b613a8a858286016139ee565b9150509250929050565b613a9d8161387b565b82525050565b6000602082019050613ab86000830184613a94565b92915050565b60008060808385031215613ad557613ad46130bf565b5b6000613ae38582860161362d565b9250506040613af48582860161362d565b9150509250929050565b613b078161342e565b8114613b1257600080fd5b50565b600081359050613b2481613afe565b92915050565b60038110613b3757600080fd5b50565b600081359050613b4981613b2a565b92915050565b600080600080600060e08688031215613b6b57613b6a6130bf565b5b6000613b7988828901613344565b9550506040613b8a88828901613344565b9450506080613b9b88828901613123565b93505060a0613bac88828901613b15565b92505060c0613bbd88828901613b3a565b9150509295509295909350565b613bd3816133c3565b8114613bde57600080fd5b50565b600081359050613bf081613bca565b92915050565b60008060008060008060808789031215613c1357613c126130bf565b5b6000613c2189828a01613be1565b9650506020613c3289828a016130ea565b955050604087013567ffffffffffffffff811115613c5357613c526130c4565b5b613c5f89828a01613724565b9450945050606087013567ffffffffffffffff811115613c8257613c816130c4565b5b613c8e89828a016138b1565b92509250509295509295509295565b613ca681613178565b82525050565b6000602082019050613cc16000830184613c9d565b92915050565b600080600080600060608688031215613ce357613ce26130bf565b5b6000613cf1888289016130ea565b955050602086013567ffffffffffffffff811115613d1257613d116130c4565b5b613d1e88828901613724565b9450945050604086013567ffffffffffffffff811115613d4157613d406130c4565b5b613d4d888289016138b1565b92509250509295509295909350565b6000604082019050613d7160008301846133ff565b92915050565b600060208284031215613d8d57613d8c6130bf565b5b6000613d9b84828501613be1565b91505092915050565b7f4e6f7468696e6720746f2077697468647261773b20636f6e747261637420626160008201527f6c616e636520656d707479000000000000000000000000000000000000000000602082015250565b6000613e00602b836137e5565b9150613e0b82613da4565b604082019050919050565b60006020820190508181036000830152613e2f81613df3565b9050919050565b600081905092915050565b50565b6000613e51600083613e36565b9150613e5c82613e41565b600082019050919050565b6000613e7282613e44565b9150819050919050565b7f4661696c656420746f2073656e64204574686572000000000000000000000000600082015250565b6000613eb26014836137e5565b9150613ebd82613e7c565b602082019050919050565b60006020820190508181036000830152613ee181613ea5565b9050919050565b7f4e6f2067616d6520696e6465782070726573656e740000000000000000000000600082015250565b6000613f1e6015836137e5565b9150613f2982613ee8565b602082019050919050565b60006020820190508181036000830152613f4d81613f11565b9050919050565b7f47616d65206973206e6f7420696e207374617274207374617465000000000000600082015250565b6000613f8a601a836137e5565b9150613f9582613f54565b602082019050919050565b60006020820190508181036000830152613fb981613f7d565b9050919050565b7f4d6f766520636f756e7420697320616c72656164792066696e69736865640000600082015250565b6000613ff6601e836137e5565b915061400182613fc0565b602082019050919050565b6000602082019050818103600083015261402581613fe9565b9050919050565b7f4e487b7100000000000000000000000000000000000000000000000000000000600052601160045260246000fd5b6000614066826130c9565b9150614071836130c9565b92508282019050808211156140895761408861402c565b5b92915050565b6000813561409c8161310c565b80915050919050565b60008160001b9050919050565b600060ff6140bf846140a5565b9350801983169250808416831791505092915050565b6000819050919050565b60006140fa6140f56140f0846130ff565b6140d5565b6130ff565b9050919050565b6000819050919050565b614114826140df565b61412761412082614101565b83546140b2565b8255505050565b60008160081b9050919050565b600061ff006141498461412e565b9350801983169250808416831791505092915050565b614168826140df565b61417b61417482614101565b835461413b565b8255505050565b6000810160008301806141948161408f565b90506141a0818461410b565b5050506000810160208301806141b58161408f565b90506141c1818461415f565b5050505050565b6141d28282614182565b5050565b60006141e56020840184613123565b905092915050565b604082016141fe60008301836141d6565b61420b6000850182613193565b5061421960208301836141d6565b6142266020850182613193565b50505050565b60006080820190506142416000830186613307565b61424e60208301856141ed565b61425b60608301846136d0565b949350505050565b600061426e826130ff565b9150614279836130ff565b9250828201905060ff8111156142925761429161402c565b5b92915050565b7f546869732077616c6c6574206973206e6f742070617274206f6620746869732060008201527f67616d6500000000000000000000000000000000000000000000000000000000602082015250565b60006142f46024836137e5565b91506142ff82614298565b604082019050919050565b60006020820190508181036000830152614323816142e7565b9050919050565b6000604082840312156143405761433f6130bf565b5b600061434e8482850161362d565b91505092915050565b600081905092915050565b600061436e8385614357565b935061437b83858461399d565b82840190509392505050565b6000819050919050565b6143a261439d826130c9565b614387565b82525050565b60006143b5828587614362565b91506143c18284614391565b602082019150819050949350505050565b60006080820190506143e76000830187613a94565b6143f46020830186613451565b6144016040830185613a94565b61440e6060830184613a94565b95945050505050565b600081519050919050565b600061442d82614417565b6144378185613e36565b93506144478185602086016137f6565b80840191505092915050565b600061445e826137da565b6144688185614357565b93506144788185602086016137f6565b80840191505092915050565b60006144908286614422565b915061449c8285614453565b91506144a88284614453565b9150819050949350505050565b60006144c0826130ff565b91506144cb836130ff565b9250828203905060ff8111156144e4576144e361402c565b5b92915050565b60006144f5826130ff565b9150614500836130ff565b925082820261450e816130ff565b91508082146145205761451f61402c565b5b5092915050565b600060a08201905061453c60008301876141ed565b6145496040830186613307565b6145566060830185613442565b6145636080830184613451565b95945050505050565b7f47616d652068617320616c726561647920737461727465640000000000000000600082015250565b60006145a26018836137e5565b91506145ad8261456c565b602082019050919050565b600060208201905081810360008301526145d181614595565b9050919050565b7f47616d652063726561746f7220616e64206a6f696e65722063616e6e6f74206260008201527f652073616d650000000000000000000000000000000000000000000000000000602082015250565b60006146346026836137e5565b915061463f826145d8565b604082019050919050565b6000602082019050818103600083015261466381614627565b9050919050565b7f4e487b7100000000000000000000000000000000000000000000000000000000600052601260045260246000fd5b60006146a4826130c9565b91506146af836130c9565b9250826146bf576146be61466a565b5b828204905092915050565b7f55736572732062696420646f6573206e6f74206d61746368207265717569726560008201527f64206269642076616c7565000000000000000000000000000000000000000000602082015250565b6000614726602b836137e5565b9150614731826146ca565b604082019050919050565b6000602082019050818103600083015261475581614719565b9050919050565b7f6e6f207375636820736563726574000000000000000000000000000000000000600082015250565b6000614792600e836137e5565b915061479d8261475c565b602082019050919050565b600060208201905081810360008301526147c181614785565b9050919050565b7f4e6f7420616c6c6f776564000000000000000000000000000000000000000000600082015250565b60006147fe600b836137e5565b9150614809826147c8565b602082019050919050565b6000602082019050818103600083015261482d816147f1565b9050919050565b7f4f776e61626c653a206e6577206f776e657220697320746865207a65726f206160008201527f6464726573730000000000000000000000000000000000000000000000000000602082015250565b60006148906026836137e5565b915061489b82614834565b604082019050919050565b600060208201905081810360008301526148bf81614883565b9050919050565b7f4f776e61626c653a2063616c6c6572206973206e6f7420746865206f776e6572600082015250565b60006148fc6020836137e5565b9150614907826148c6565b602082019050919050565b6000602082019050818103600083015261492b816148ef565b9050919050565b6000608082019050818103600083015261494c8187613820565b905061495b6020830186613307565b818103604083015261496d8185613820565b905061497c6060830184613307565b95945050505050565b6000614990826130c9565b915061499b836130c9565b92508282039050818111156149b3576149b261402c565b5b92915050565b60006149c4826130c9565b91506149cf836130c9565b92508282026149dd816130c9565b915082820484148315176149f4576149f361402c565b5b5092915050565b7f416d6f756e742067726561746572207468616e206465706f7369740000000000600082015250565b6000614a31601b836137e5565b9150614a3c826149fb565b602082019050919050565b60006020820190508181036000830152614a6081614a24565b9050919050565b7f5061796d656e74206661696c6564000000000000000000000000000000000000600082015250565b6000614a9d600e836137e5565b9150614aa882614a67565b602082019050919050565b60006020820190508181036000830152614acc81614a90565b9050919050565b6000606082019050614ae86000830186613307565b614af560208301856133d5565b614b026040830184613307565b949350505050565b7f3078000000000000000000000000000000000000000000000000000000000000600082015250565b6000614b40600283614357565b9150614b4b82614b0a565b600282019050919050565b6000819050919050565b614b71614b6c8261387b565b614b56565b82525050565b6000614b8282614b33565b9150614b8e8285614b60565b602082019150614b9e8284614b60565b6020820191508190509392505050565b7f4e487b7100000000000000000000000000000000000000000000000000000000600052603260045260246000fd5b6000614be8826130c9565b91507fffffffffffffffffffffffffffffffffffffffffffffffffffffffffffffffff8203614c1a57614c1961402c565b5b600182019050919050565b7f696e76616c6964207369676e6174757265206c656e6774680000000000000000600082015250565b6000614c5b6018836137e5565b9150614c6682614c25565b602082019050919050565b60006020820190508181036000830152614c8a81614c4e565b9050919050565b7f4e487b7100000000000000000000000000000000000000000000000000000000600052605160045260246000fdfea26469706673582212208dd35bce9b0ee69ad02b428e9ff6ff9bca48de4e6960cf8ea514e8d25f4f807264736f6c63430008110033",
  "linkReferences": {},
  "deployedLinkReferences": {}
}