{
  "_format": "hh-sol-artifact-1",
  "contractName": "Maze",
  "sourceName": "contracts/Maze.sol",
  "abi": [
    {
      "inputs": [
        {
          "internalType": "uint256",
          "name": "game_index",
          "type": "uint256"
        }
      ],
      "name": "EndGameNotAllowed",
      "type": "error"
    },
    {
      "inputs": [
        {
          "internalType": "uint256",
          "name": "user_bid",
          "type": "uint256"
        },
        {
          "internalType": "uint256",
          "name": "required_bid",
          "type": "uint256"
        }
      ],
      "name": "MismatchedBid",
      "type": "error"
    },
    {
      "anonymous": false,
      "inputs": [
        {
          "indexed": true,
          "internalType": "address",
          "name": "creator",
          "type": "address"
        },
        {
          "components": [
            {
              "internalType": "uint8",
              "name": "x",
              "type": "uint8"
            },
            {
              "internalType": "uint8",
              "name": "y",
              "type": "uint8"
            }
          ],
          "indexed": false,
          "internalType": "struct Maze.Point",
          "name": "pos",
          "type": "tuple"
        },
        {
          "indexed": false,
          "internalType": "uint256",
          "name": "game_index",
          "type": "uint256"
        },
        {
          "indexed": false,
          "internalType": "uint64",
          "name": "move_time",
          "type": "uint64"
        },
        {
          "indexed": false,
          "internalType": "uint8",
          "name": "move_counter",
          "type": "uint8"
        }
      ],
      "name": "GameInitialize",
      "type": "event"
    },
    {
      "anonymous": false,
      "inputs": [
        {
          "indexed": true,
          "internalType": "address",
          "name": "creator",
          "type": "address"
        },
        {
          "indexed": true,
          "internalType": "address",
          "name": "player2",
          "type": "address"
        },
        {
          "indexed": false,
          "internalType": "uint256",
          "name": "index",
          "type": "uint256"
        }
      ],
      "name": "GameJoin",
      "type": "event"
    },
    {
      "anonymous": false,
      "inputs": [
        {
          "indexed": true,
          "internalType": "address",
          "name": "previousOwner",
          "type": "address"
        },
        {
          "indexed": true,
          "internalType": "address",
          "name": "newOwner",
          "type": "address"
        }
      ],
      "name": "OwnershipTransferred",
      "type": "event"
    },
    {
      "anonymous": false,
      "inputs": [
        {
          "indexed": true,
          "internalType": "address",
          "name": "creator",
          "type": "address"
        },
        {
          "indexed": true,
          "internalType": "address",
          "name": "player2",
          "type": "address"
        },
        {
          "indexed": false,
          "internalType": "uint256",
          "name": "index",
          "type": "uint256"
        },
        {
          "components": [
            {
              "internalType": "uint8",
              "name": "x",
              "type": "uint8"
            },
            {
              "internalType": "uint8",
              "name": "y",
              "type": "uint8"
            }
          ],
          "indexed": false,
          "internalType": "struct Maze.Point",
          "name": "pos",
          "type": "tuple"
        },
        {
          "indexed": false,
          "internalType": "enum Maze.MoveResult",
          "name": "move_result",
          "type": "uint8"
        }
      ],
      "name": "PlayerMove",
      "type": "event"
    },
    {
      "anonymous": false,
      "inputs": [
        {
          "indexed": true,
          "internalType": "address",
          "name": "creator",
          "type": "address"
        },
        {
          "indexed": true,
          "internalType": "address",
          "name": "player2",
          "type": "address"
        },
        {
          "indexed": false,
          "internalType": "uint256",
          "name": "index",
          "type": "uint256"
        },
        {
          "indexed": false,
          "internalType": "address",
          "name": "winner",
          "type": "address"
        },
        {
          "indexed": false,
          "internalType": "uint256",
          "name": "amount",
          "type": "uint256"
        }
      ],
      "name": "PlayerMoveEnd",
      "type": "event"
    },
    {
      "anonymous": false,
      "inputs": [
        {
          "indexed": true,
          "internalType": "address",
          "name": "creator",
          "type": "address"
        },
        {
          "indexed": false,
          "internalType": "uint256",
          "name": "index",
          "type": "uint256"
        }
      ],
      "name": "SecretPositionCreated",
      "type": "event"
    },
    {
      "anonymous": false,
      "inputs": [
        {
          "indexed": true,
          "internalType": "address",
          "name": "creator",
          "type": "address"
        },
        {
          "components": [
            {
              "internalType": "uint8",
              "name": "x",
              "type": "uint8"
            },
            {
              "internalType": "uint8",
              "name": "y",
              "type": "uint8"
            }
          ],
          "indexed": false,
          "internalType": "struct Maze.Point",
          "name": "pos",
          "type": "tuple"
        },
        {
          "indexed": false,
          "internalType": "uint256",
          "name": "index",
          "type": "uint256"
        }
      ],
      "name": "SecretPositionRevealed",
      "type": "event"
    },
    {
      "inputs": [
        {
          "internalType": "uint256",
          "name": "",
          "type": "uint256"
        }
      ],
      "name": "_deposits",
      "outputs": [
        {
          "internalType": "uint256",
          "name": "creator_deposit",
          "type": "uint256"
        },
        {
          "internalType": "uint256",
          "name": "player2_deposit",
          "type": "uint256"
        }
      ],
      "stateMutability": "view",
      "type": "function"
    },
    {
      "inputs": [
        {
          "internalType": "uint256",
          "name": "",
          "type": "uint256"
        }
      ],
      "name": "_gameMetadatas",
      "outputs": [
        {
          "internalType": "address",
          "name": "creator",
          "type": "address"
        },
        {
          "internalType": "address",
          "name": "player2",
          "type": "address"
        },
        {
          "internalType": "address",
          "name": "winner",
          "type": "address"
        },
        {
          "components": [
            {
              "internalType": "uint8",
              "name": "x",
              "type": "uint8"
            },
            {
              "internalType": "uint8",
              "name": "y",
              "type": "uint8"
            }
          ],
          "internalType": "struct Maze.Point",
          "name": "current_pos",
          "type": "tuple"
        },
        {
          "internalType": "uint64",
          "name": "move_time",
          "type": "uint64"
        },
        {
          "internalType": "uint8",
          "name": "move_counter",
          "type": "uint8"
        },
        {
          "internalType": "uint8",
          "name": "current_move_counter",
          "type": "uint8"
        },
        {
          "internalType": "uint256",
          "name": "last_move_timestamp",
          "type": "uint256"
        },
        {
          "internalType": "uint256",
          "name": "game_index",
          "type": "uint256"
        },
        {
          "internalType": "enum Maze.GameStatus",
          "name": "status",
          "type": "uint8"
        },
        {
          "internalType": "enum Maze.BidType",
          "name": "bid_type",
          "type": "uint8"
        }
      ],
      "stateMutability": "view",
      "type": "function"
    },
    {
      "inputs": [
        {
          "internalType": "uint256",
          "name": "game_index",
          "type": "uint256"
        },
        {
          "internalType": "string",
          "name": "data",
          "type": "string"
        }
      ],
      "name": "_getMessageHash",
      "outputs": [
        {
          "internalType": "string",
          "name": "",
          "type": "string"
        }
      ],
      "stateMutability": "pure",
      "type": "function"
    },
    {
      "inputs": [
        {
          "internalType": "bytes32",
          "name": "hash",
          "type": "bytes32"
        },
        {
          "internalType": "bytes",
          "name": "signature",
          "type": "bytes"
        }
      ],
      "name": "_getSignatureAddress",
      "outputs": [
        {
          "internalType": "address",
          "name": "",
          "type": "address"
        }
      ],
      "stateMutability": "pure",
      "type": "function"
    },
    {
      "inputs": [
        {
          "internalType": "uint256",
          "name": "game_index",
          "type": "uint256"
        }
      ],
      "name": "endGame",
      "outputs": [],
      "stateMutability": "nonpayable",
      "type": "function"
    },
    {
      "inputs": [
        {
          "internalType": "uint256",
          "name": "game_index",
          "type": "uint256"
        }
      ],
      "name": "forfeitGame",
      "outputs": [],
      "stateMutability": "nonpayable",
      "type": "function"
    },
    {
      "inputs": [],
      "name": "getCurrentBalance",
      "outputs": [
        {
          "internalType": "uint256",
          "name": "",
          "type": "uint256"
        }
      ],
      "stateMutability": "view",
      "type": "function"
    },
    {
      "inputs": [
        {
          "internalType": "string",
          "name": "message",
          "type": "string"
        },
        {
          "internalType": "string",
          "name": "length",
          "type": "string"
        }
      ],
      "name": "getEthHash",
      "outputs": [
        {
          "internalType": "bytes32",
          "name": "",
          "type": "bytes32"
        }
      ],
      "stateMutability": "pure",
      "type": "function"
    },
    {
      "inputs": [
        {
          "internalType": "uint256",
          "name": "game_index",
          "type": "uint256"
        },
        {
          "internalType": "uint8",
          "name": "move_index",
          "type": "uint8"
        }
      ],
      "name": "getMoveData",
      "outputs": [
        {
          "components": [
            {
              "internalType": "bool",
              "name": "is_valid",
              "type": "bool"
            },
            {
              "components": [
                {
                  "internalType": "uint8",
                  "name": "x",
                  "type": "uint8"
                },
                {
                  "internalType": "uint8",
                  "name": "y",
                  "type": "uint8"
                }
              ],
              "internalType": "struct Maze.Point",
              "name": "from",
              "type": "tuple"
            },
            {
              "components": [
                {
                  "internalType": "uint8",
                  "name": "x",
                  "type": "uint8"
                },
                {
                  "internalType": "uint8",
                  "name": "y",
                  "type": "uint8"
                }
              ],
              "internalType": "struct Maze.Point",
              "name": "to",
              "type": "tuple"
            },
            {
              "internalType": "uint256",
              "name": "timestamp",
              "type": "uint256"
            },
            {
              "internalType": "enum Maze.MoveResult",
              "name": "move_result",
              "type": "uint8"
            }
          ],
          "internalType": "struct Maze.MoveMetadata",
          "name": "",
          "type": "tuple"
        }
      ],
      "stateMutability": "view",
      "type": "function"
    },
    {
      "inputs": [
        {
          "components": [
            {
              "internalType": "uint8",
              "name": "x",
              "type": "uint8"
            },
            {
              "internalType": "uint8",
              "name": "y",
              "type": "uint8"
            }
          ],
          "internalType": "struct Maze.Point",
          "name": "ref_point",
          "type": "tuple"
        },
        {
          "components": [
            {
              "internalType": "uint8",
              "name": "x",
              "type": "uint8"
            },
            {
              "internalType": "uint8",
              "name": "y",
              "type": "uint8"
            }
          ],
          "internalType": "struct Maze.Point",
          "name": "old_point",
          "type": "tuple"
        },
        {
          "components": [
            {
              "internalType": "uint8",
              "name": "x",
              "type": "uint8"
            },
            {
              "internalType": "uint8",
              "name": "y",
              "type": "uint8"
            }
          ],
          "internalType": "struct Maze.Point",
          "name": "new_point",
          "type": "tuple"
        }
      ],
      "name": "getMoveResult",
      "outputs": [
        {
          "internalType": "enum Maze.MoveResult",
          "name": "",
          "type": "uint8"
        }
      ],
      "stateMutability": "pure",
      "type": "function"
    },
    {
      "inputs": [
        {
          "components": [
            {
              "internalType": "uint8",
              "name": "x",
              "type": "uint8"
            },
            {
              "internalType": "uint8",
              "name": "y",
              "type": "uint8"
            }
          ],
          "internalType": "struct Maze.Point",
          "name": "p1",
          "type": "tuple"
        },
        {
          "components": [
            {
              "internalType": "uint8",
              "name": "x",
              "type": "uint8"
            },
            {
              "internalType": "uint8",
              "name": "y",
              "type": "uint8"
            }
          ],
          "internalType": "struct Maze.Point",
          "name": "p2",
          "type": "tuple"
        }
      ],
      "name": "getPointDistance",
      "outputs": [
        {
          "internalType": "uint256",
          "name": "",
          "type": "uint256"
        }
      ],
      "stateMutability": "pure",
      "type": "function"
    },
    {
      "inputs": [
        {
          "internalType": "uint256",
          "name": "game_index",
          "type": "uint256"
        },
        {
          "internalType": "string",
          "name": "data",
          "type": "string"
        },
        {
          "internalType": "bytes",
          "name": "signature",
          "type": "bytes"
        }
      ],
      "name": "getSecretPosition",
      "outputs": [
        {
          "components": [
            {
              "internalType": "uint8",
              "name": "x",
              "type": "uint8"
            },
            {
              "internalType": "uint8",
              "name": "y",
              "type": "uint8"
            }
          ],
          "internalType": "struct Maze.Point",
          "name": "",
          "type": "tuple"
        }
      ],
      "stateMutability": "view",
      "type": "function"
    },
    {
      "inputs": [
        {
          "components": [
            {
              "internalType": "uint8",
              "name": "x",
              "type": "uint8"
            },
            {
              "internalType": "uint8",
              "name": "y",
              "type": "uint8"
            }
          ],
          "internalType": "struct Maze.Point",
          "name": "p1_pos",
          "type": "tuple"
        },
        {
          "components": [
            {
              "internalType": "uint8",
              "name": "x",
              "type": "uint8"
            },
            {
              "internalType": "uint8",
              "name": "y",
              "type": "uint8"
            }
          ],
          "internalType": "struct Maze.Point",
          "name": "p2_pos",
          "type": "tuple"
        },
        {
          "internalType": "uint8",
          "name": "move_counter",
          "type": "uint8"
        },
        {
          "internalType": "uint64",
          "name": "move_time_limit",
          "type": "uint64"
        },
        {
          "internalType": "enum Maze.BidType",
          "name": "bid_type",
          "type": "uint8"
        }
      ],
      "name": "initGame",
      "outputs": [],
      "stateMutability": "payable",
      "type": "function"
    },
    {
      "inputs": [
        {
          "internalType": "uint256",
          "name": "game_index",
          "type": "uint256"
        }
      ],
      "name": "joinGame",
      "outputs": [],
      "stateMutability": "payable",
      "type": "function"
    },
    {
      "inputs": [],
      "name": "owner",
      "outputs": [
        {
          "internalType": "address",
          "name": "",
          "type": "address"
        }
      ],
      "stateMutability": "view",
      "type": "function"
    },
    {
      "inputs": [
        {
          "internalType": "uint256",
          "name": "game_index",
          "type": "uint256"
        },
        {
          "components": [
            {
              "internalType": "uint8",
              "name": "x",
              "type": "uint8"
            },
            {
              "internalType": "uint8",
              "name": "y",
              "type": "uint8"
            }
          ],
          "internalType": "struct Maze.Point",
          "name": "pos",
          "type": "tuple"
        }
      ],
      "name": "playerMove",
      "outputs": [],
      "stateMutability": "nonpayable",
      "type": "function"
    },
    {
      "inputs": [],
      "name": "renounceOwnership",
      "outputs": [],
      "stateMutability": "nonpayable",
      "type": "function"
    },
    {
      "inputs": [
        {
          "internalType": "address",
          "name": "newOwner",
          "type": "address"
        }
      ],
      "name": "transferOwnership",
      "outputs": [],
      "stateMutability": "nonpayable",
      "type": "function"
    },
    {
      "inputs": [
        {
          "internalType": "address",
          "name": "signer",
          "type": "address"
        },
        {
          "internalType": "uint256",
          "name": "game_index",
          "type": "uint256"
        },
        {
          "internalType": "string",
          "name": "data",
          "type": "string"
        },
        {
          "internalType": "bytes",
          "name": "signature",
          "type": "bytes"
        }
      ],
      "name": "verifySignature",
      "outputs": [
        {
          "internalType": "bool",
          "name": "",
          "type": "bool"
        }
      ],
      "stateMutability": "pure",
      "type": "function"
    },
    {
      "inputs": [],
      "name": "withdraw",
      "outputs": [],
      "stateMutability": "nonpayable",
      "type": "function"
    }
  ],
  "bytecode": "0x608060405260c86006553480156200001657600080fd5b50620000376200002b6200003d60201b60201c565b6200004560201b60201c565b62000109565b600033905090565b60008060009054906101000a900473ffffffffffffffffffffffffffffffffffffffff169050816000806101000a81548173ffffffffffffffffffffffffffffffffffffffff021916908373ffffffffffffffffffffffffffffffffffffffff1602179055508173ffffffffffffffffffffffffffffffffffffffff168173ffffffffffffffffffffffffffffffffffffffff167f8be0079c531659141344cd1fd0a4f28419497f9722a3daafe3b4186f6b6457e060405160405180910390a35050565b614cf780620001196000396000f3fe60806040526004361061011f5760003560e01c8063a8bfc077116100a0578063d0399bb811610064578063d0399bb814610409578063e58b7bc214610432578063efaa55a01461046f578063f263828b1461048b578063f2fde38b146104c85761011f565b8063a8bfc077146102f9578063af54322114610336578063b510135814610373578063bdb5c2ec146103b0578063c555196f146103ed5761011f565b80638da5cb5b116100e75780638da5cb5b146101f65780639509fb921461022157806398be22f714610268578063a154170314610291578063a5749710146102ce5761011f565b8063260486da146101245780633b9d08d9146101615780633ccfd60b1461019f578063715018a6146101b65780637768cfe9146101cd575b600080fd5b34801561013057600080fd5b5061014b60048036038101906101469190613139565b6104f1565b60405161015891906132c0565b60405180910390f35b34801561016d57600080fd5b50610188600480360381019061018391906132db565b610632565b604051610196929190613317565b60405180910390f35b3480156101ab57600080fd5b506101b4610656565b005b3480156101c257600080fd5b506101cb61076d565b005b3480156101d957600080fd5b506101f460048036038101906101ef9190613364565b610781565b005b34801561020257600080fd5b5061020b610e30565b60405161021891906133e5565b60405180910390f35b34801561022d57600080fd5b50610248600480360381019061024391906132db565b610e59565b60405161025f9b9a999897969594939291906134f1565b60405180910390f35b34801561027457600080fd5b5061028f600480360381019061028a91906132db565b610f9f565b005b34801561029d57600080fd5b506102b860048036038101906102b3919061367e565b611295565b6040516102c591906136e0565b60405180910390f35b3480156102da57600080fd5b506102e3611308565b6040516102f091906136fb565b60405180910390f35b34801561030557600080fd5b50610320600480360381019061031b919061377b565b611310565b60405161032d919061385a565b60405180910390f35b34801561034257600080fd5b5061035d60048036038101906103589190613908565b611356565b60405161036a91906133e5565b60405180910390f35b34801561037f57600080fd5b5061039a60048036038101906103959190613a1d565b611410565b6040516103a79190613aa4565b60405180910390f35b3480156103bc57600080fd5b506103d760048036038101906103d29190613abf565b611485565b6040516103e491906136fb565b60405180910390f35b61040760048036038101906104029190613b50565b611543565b005b34801561041557600080fd5b50610430600480360381019061042b91906132db565b611b1e565b005b34801561043e57600080fd5b5061045960048036038101906104549190613bf7565b611e2d565b6040516104669190613cad565b60405180910390f35b610489600480360381019061048491906132db565b611f6c565b005b34801561049757600080fd5b506104b260048036038101906104ad9190613cc8565b612362565b6040516104bf9190613d5d565b60405180910390f35b3480156104d457600080fd5b506104ef60048036038101906104ea9190613d78565b6124dc565b005b6104f961303d565b6004600084815260200190815260200160002060080160008360ff1681526020019081526020016000206040518060a00160405290816000820160009054906101000a900460ff16151515158152602001600182016040518060400160405290816000820160009054906101000a900460ff1660ff1660ff1681526020016000820160019054906101000a900460ff1660ff1660ff16815250508152602001600282016040518060400160405290816000820160009054906101000a900460ff1660ff1660ff1681526020016000820160019054906101000a900460ff1660ff1660ff16815250508152602001600382015481526020016004820160009054906101000a900460ff166003811115610614576106136131e1565b5b6003811115610626576106256131e1565b5b81525050905092915050565b60056020528060005260406000206000915090508060000154908060010154905082565b61065e61255f565b60006002549050600081116106a8576040517f08c379a000000000000000000000000000000000000000000000000000000000815260040161069f90613e17565b60405180910390fd5b600060028190555060006106ba610e30565b905060008173ffffffffffffffffffffffffffffffffffffffff16836040516106e290613e68565b60006040518083038185875af1925050503d806000811461071f576040519150601f19603f3d011682016040523d82523d6000602084013e610724565b606091505b5050905080610768576040517f08c379a000000000000000000000000000000000000000000000000000000000815260040161075f90613ec9565b60405180910390fd5b505050565b61077561255f565b61077f60006125dd565b565b60015482106107c5576040517f08c379a00000000000000000000000000000000000000000000000000000000081526004016107bc90613f35565b60405180910390fd5b600160028111156107d9576107d86131e1565b5b6004600084815260200190815260200160002060070160009054906101000a900460ff16600281111561080f5761080e6131e1565b5b1461084f576040517f08c379a000000000000000000000000000000000000000000000000000000000815260040161084690613fa1565b60405180910390fd5b6004600083815260200190815260200160002060040160089054906101000a900460ff1660ff166004600084815260200190815260200160002060040160099054906101000a900460ff1660ff16106108dd576040517f08c379a00000000000000000000000000000000000000000000000000000000081526004016108d49061400d565b60405180910390fd5b60006004600084815260200190815260200160002060040160099054906101000a900460ff16905060006004600085815260200190815260200160002060040160009054906101000a900467ffffffffffffffff1667ffffffffffffffff16600460008681526020019081526020016000206005015461095d919061405c565b90506109d56040518060400160405280600a81526020017f74696d655f6c696d697400000000000000000000000000000000000000000000815250826040518060400160405280601081526020017f626c6f636b2e74696d657374616d702000000000000000000000000000000000815250426126a1565b80421115610a2457610a1d846004600087815260200190815260200160002060000160009054906101000a900473ffffffffffffffffffffffffffffffffffffffff16612743565b5050610e2c565b60016004600086815260200190815260200160002060080160008460ff16815260200190815260200160002060000160006101000a81548160ff021916908315150217905550600460008581526020019081526020016000206003016004600086815260200190815260200160002060080160008460ff1681526020019081526020016000206001016000820160009054906101000a900460ff168160000160006101000a81548160ff021916908360ff1602179055506000820160019054906101000a900460ff168160000160016101000a81548160ff021916908360ff160217905550905050826004600086815260200190815260200160002060080160008460ff1681526020019081526020016000206002018181610b4691906141c9565b905050426004600086815260200190815260200160002060080160008460ff16815260200190815260200160002060030181905550426004600086815260200190815260200160002060050181905550610c55600360008681526020019081526020016000206000016040518060400160405290816000820160009054906101000a900460ff1660ff1660ff1681526020016000820160019054906101000a900460ff1660ff1660ff1681525050600460008781526020019081526020016000206003016040518060400160405290816000820160009054906101000a900460ff1660ff1660ff1681526020016000820160019054906101000a900460ff1660ff1660ff168152505085611295565b6004600086815260200190815260200160002060080160008460ff16815260200190815260200160002060040160006101000a81548160ff02191690836003811115610ca457610ca36131e1565b5b021790555082600460008681526020019081526020016000206003018181610ccc91906141c9565b9050506004600085815260200190815260200160002060010160009054906101000a900473ffffffffffffffffffffffffffffffffffffffff1673ffffffffffffffffffffffffffffffffffffffff166004600086815260200190815260200160002060000160009054906101000a900473ffffffffffffffffffffffffffffffffffffffff1673ffffffffffffffffffffffffffffffffffffffff167f23f9e36a4a696b9ce7fabe7cf49b72028c7e492bba0b5167575bcb2f69b337e38686600460008a815260200190815260200160002060080160008860ff16815260200190815260200160002060040160009054906101000a900460ff16604051610dd69392919061422d565b60405180910390a360016004600086815260200190815260200160002060040160098282829054906101000a900460ff16610e119190614264565b92506101000a81548160ff021916908360ff16021790555050505b5050565b60008060009054906101000a900473ffffffffffffffffffffffffffffffffffffffff16905090565b60046020528060005260406000206000915090508060000160009054906101000a900473ffffffffffffffffffffffffffffffffffffffff16908060010160009054906101000a900473ffffffffffffffffffffffffffffffffffffffff16908060020160009054906101000a900473ffffffffffffffffffffffffffffffffffffffff1690806003016040518060400160405290816000820160009054906101000a900460ff1660ff1660ff1681526020016000820160019054906101000a900460ff1660ff1660ff1681525050908060040160009054906101000a900467ffffffffffffffff16908060040160089054906101000a900460ff16908060040160099054906101000a900460ff16908060050154908060060154908060070160009054906101000a900460ff16908060070160019054906101000a900460ff1690508b565b6001548110610fe3576040517f08c379a0000000000000000000000000000000000000000000000000000000008152600401610fda90613f35565b60405180910390fd5b6004600082815260200190815260200160002060000160009054906101000a900473ffffffffffffffffffffffffffffffffffffffff1673ffffffffffffffffffffffffffffffffffffffff163373ffffffffffffffffffffffffffffffffffffffff1614806110b457506004600082815260200190815260200160002060010160009054906101000a900473ffffffffffffffffffffffffffffffffffffffff1673ffffffffffffffffffffffffffffffffffffffff163373ffffffffffffffffffffffffffffffffffffffff16145b6110f3576040517f08c379a00000000000000000000000000000000000000000000000000000000081526004016110ea9061430b565b60405180910390fd5b6004600082815260200190815260200160002060000160009054906101000a900473ffffffffffffffffffffffffffffffffffffffff1673ffffffffffffffffffffffffffffffffffffffff163373ffffffffffffffffffffffffffffffffffffffff160361125157600073ffffffffffffffffffffffffffffffffffffffff166004600083815260200190815260200160002060010160009054906101000a900473ffffffffffffffffffffffffffffffffffffffff1673ffffffffffffffffffffffffffffffffffffffff160361120b57611206816004600084815260200190815260200160002060000160009054906101000a900473ffffffffffffffffffffffffffffffffffffffff16612743565b61124c565b61124b816004600084815260200190815260200160002060010160009054906101000a900473ffffffffffffffffffffffffffffffffffffffff16612743565b5b611292565b611291816004600084815260200190815260200160002060000160009054906101000a900473ffffffffffffffffffffffffffffffffffffffff16612743565b5b50565b6000806112a28585611485565b905060006112c086858036038101906112bb919061432b565b611485565b9050600081036112d557600292505050611301565b8181036112e757600392505050611301565b818110156112fa57600092505050611301565b6001925050505b9392505050565b600047905090565b606061134d61134884848760405160200161132d939291906143a9565b60405160208183030381529060405280519060200120612b30565b612b6f565b90509392505050565b6000806000806113a986868080601f016020809104026020016040519081016040528093929190818152602001838380828437600081840152601f19601f82011690508083019250505050505050612d27565b9250925092506000600188838686604051600081526020016040526040516113d494939291906143d3565b6020604051602081039080840390855afa1580156113f6573d6000803e3d6000fd5b505050602060405103519050809450505050509392505050565b6000806040518060400160405280601a81526020017f19457468657265756d205369676e6564204d6573736167653a0a0000000000008152509050600081848660405160200161146293929190614485565b604051602081830303815290604052805190602001209050809250505092915050565b600080826000015160ff16846000015160ff16116114b657836000015183600001516114b191906144b6565b6114cb565b826000015184600001516114ca91906144b6565b5b90506000836020015160ff16856020015160ff16116114fd57846020015184602001516114f891906144b6565b611512565b8360200151856020015161151191906144b6565b5b9050808161152091906144eb565b828361152c91906144eb565b6115369190614264565b60ff169250505092915050565b3360046000600154815260200190815260200160002060000160006101000a81548173ffffffffffffffffffffffffffffffffffffffff021916908373ffffffffffffffffffffffffffffffffffffffff160217905550600060046000600154815260200190815260200160002060010160006101000a81548173ffffffffffffffffffffffffffffffffffffffff021916908373ffffffffffffffffffffffffffffffffffffffff16021790555083600460006001548152602001908152602001600020600301818161161791906141c9565b9050508160046000600154815260200190815260200160002060040160006101000a81548167ffffffffffffffff021916908367ffffffffffffffff1602179055508260046000600154815260200190815260200160002060040160086101000a81548160ff021916908360ff160217905550600060046000600154815260200190815260200160002060040160096101000a81548160ff021916908360ff160217905550600060046000600154815260200190815260200160002060070160006101000a81548160ff021916908360028111156116f8576116f76131e1565b5b02179055504260046000600154815260200190815260200160002060050181905550600060046000600154815260200190815260200160002060020160006101000a81548173ffffffffffffffffffffffffffffffffffffffff021916908373ffffffffffffffffffffffffffffffffffffffff1602179055508060046000600154815260200190815260200160002060070160016101000a81548160ff021916908360028111156117ad576117ac6131e1565b5b02179055506001546004600060015481526020019081526020016000206006018190555060405180604001604052803481526020016000815250600560006001548152602001908152602001600020600082015181600001556020820151816001015590505061181b61303d565b60008160000190151590811515815250506040518060400160405280600060ff168152602001600060ff1681525081602001819052506040518060400160405280600060ff168152602001600060ff168152508160400181905250600081606001818152505060038160800190600381111561189a576118996131e1565b5b908160038111156118ae576118ad6131e1565b5b8152505080600460006001548152602001908152602001600020600801600080815260200190815260200160002060008201518160000160006101000a81548160ff02191690831515021790555060208201518160010160008201518160000160006101000a81548160ff021916908360ff16021790555060208201518160000160016101000a81548160ff021916908360ff160217905550505060408201518160020160008201518160000160006101000a81548160ff021916908360ff16021790555060208201518160000160016101000a81548160ff021916908360ff16021790555050506060820151816003015560808201518160040160006101000a81548160ff021916908360038111156119cb576119ca6131e1565b5b02179055509050506040518060200160405280878036038101906119ef919061432b565b81525060036000600154815260200190815260200160002060008201518160000160008201518160000160006101000a81548160ff021916908360ff16021790555060208201518160000160016101000a81548160ff021916908360ff16021790555050509050503373ffffffffffffffffffffffffffffffffffffffff167f7283dbfe66796d0cdee82733e89fd38da15d4bce8bcd805e8ba8facfa4617615600154604051611a9f91906136fb565b60405180910390a23373ffffffffffffffffffffffffffffffffffffffff167f3d5b3ae9a74fa0a138da3d60328e4134c05f774f81013eae377e964158c73dc1866001548688604051611af59493929190614528565b60405180910390a26001806000828254611b0f919061405c565b92505081905550505050505050565b6001548110611b62576040517f08c379a0000000000000000000000000000000000000000000000000000000008152600401611b5990613f35565b60405180910390fd5b60016002811115611b7657611b756131e1565b5b6004600083815260200190815260200160002060070160009054906101000a900460ff166002811115611bac57611bab6131e1565b5b14611bec576040517f08c379a0000000000000000000000000000000000000000000000000000000008152600401611be390613fa1565b60405180910390fd5b60006004600083815260200190815260200160002060040160099054906101000a900460ff16905060006004600084815260200190815260200160002060040160089054906101000a900460ff16905060026003811115611c5057611c4f6131e1565b5b600460008581526020019081526020016000206008016000600185611c7591906144b6565b60ff16815260200190815260200160002060040160009054906101000a900460ff166003811115611ca957611ca86131e1565b5b03611cf557611cee836004600086815260200190815260200160002060010160009054906101000a900473ffffffffffffffffffffffffffffffffffffffff16612743565b5050611e2a565b8060ff168260ff161115611d4a57611d43836004600086815260200190815260200160002060000160009054906101000a900473ffffffffffffffffffffffffffffffffffffffff16612743565b5050611e2a565b60006004600085815260200190815260200160002060040160009054906101000a900467ffffffffffffffff1667ffffffffffffffff166004600086815260200190815260200160002060050154611da2919061405c565b905080421115611ded57611dec846004600087815260200190815260200160002060000160009054906101000a900473ffffffffffffffffffffffffffffffffffffffff16612743565b5b836040517f166ff8af000000000000000000000000000000000000000000000000000000008152600401611e2191906136fb565b60405180910390fd5b50565b600080611e3b878787611310565b90506000611e7e826040518060400160405280600281526020017f3636000000000000000000000000000000000000000000000000000000000000815250611410565b90506000806000611ed288888080601f016020809104026020016040519081016040528093929190818152602001838380828437600081840152601f19601f82011690508083019250505050505050612d27565b925092509250600060018583868660405160008152602001604052604051611efd94939291906143d3565b6020604051602081039080840390855afa158015611f1f573d6000803e3d6000fd5b5050506020604051035190508c73ffffffffffffffffffffffffffffffffffffffff168173ffffffffffffffffffffffffffffffffffffffff161496505050505050509695505050505050565b6001548110611fb0576040517f08c379a0000000000000000000000000000000000000000000000000000000008152600401611fa790613f35565b60405180910390fd5b60006002811115611fc457611fc36131e1565b5b6004600083815260200190815260200160002060070160009054906101000a900460ff166002811115611ffa57611ff96131e1565b5b1461203a576040517f08c379a0000000000000000000000000000000000000000000000000000000008152600401612031906145b9565b60405180910390fd5b3373ffffffffffffffffffffffffffffffffffffffff166004600083815260200190815260200160002060000160009054906101000a900473ffffffffffffffffffffffffffffffffffffffff1673ffffffffffffffffffffffffffffffffffffffff16036120de576040517f08c379a00000000000000000000000000000000000000000000000000000000081526004016120d59061464b565b60405180910390fd5b60016004600083815260200190815260200160002060070160006101000a81548160ff02191690836002811115612118576121176131e1565b5b0217905550336004600083815260200190815260200160002060010160006101000a81548173ffffffffffffffffffffffffffffffffffffffff021916908373ffffffffffffffffffffffffffffffffffffffff16021790555042600460008381526020019081526020016000206005018190555060006005600083815260200190815260200160002060000154905060008060028111156121bd576121bc6131e1565b5b6004600085815260200190815260200160002060070160019054906101000a900460ff1660028111156121f3576121f26131e1565b5b14612260576001600281111561220c5761220b6131e1565b5b6004600085815260200190815260200160002060070160019054906101000a900460ff166002811115612242576122416131e1565b5b1461224d578161225b565b60028261225a919061469a565b5b612263565b60005b90508034146122a7576040517f08c379a000000000000000000000000000000000000000000000000000000000815260040161229e9061473d565b60405180910390fd5b3460056000858152602001908152602001600020600101819055503373ffffffffffffffffffffffffffffffffffffffff166004600085815260200190815260200160002060000160009054906101000a900473ffffffffffffffffffffffffffffffffffffffff1673ffffffffffffffffffffffffffffffffffffffff167f50f74e3d0024abf2216a0961725af3ef0fc07055820298413d89eb8fc3194fca8560405161235591906136fb565b60405180910390a3505050565b61236a61308c565b60015486106123ae576040517f08c379a00000000000000000000000000000000000000000000000000000000081526004016123a5906147a9565b60405180910390fd5b60006004600088815260200190815260200160002090506002808111156123d8576123d76131e1565b5b8160070160009054906101000a900460ff1660028111156123fc576123fb6131e1565b5b148061243657506124358160000160009054906101000a900473ffffffffffffffffffffffffffffffffffffffff168888888888611e2d565b5b612475576040517f08c379a000000000000000000000000000000000000000000000000000000000815260040161246c90614815565b60405180910390fd5b600360008881526020019081526020016000206000016040518060400160405290816000820160009054906101000a900460ff1660ff1660ff1681526020016000820160019054906101000a900460ff1660ff1660ff168152505091505095945050505050565b6124e461255f565b600073ffffffffffffffffffffffffffffffffffffffff168173ffffffffffffffffffffffffffffffffffffffff1603612553576040517f08c379a000000000000000000000000000000000000000000000000000000000815260040161254a906148a7565b60405180910390fd5b61255c816125dd565b50565b612567612d8f565b73ffffffffffffffffffffffffffffffffffffffff16612585610e30565b73ffffffffffffffffffffffffffffffffffffffff16146125db576040517f08c379a00000000000000000000000000000000000000000000000000000000081526004016125d290614913565b60405180910390fd5b565b60008060009054906101000a900473ffffffffffffffffffffffffffffffffffffffff169050816000806101000a81548173ffffffffffffffffffffffffffffffffffffffff021916908373ffffffffffffffffffffffffffffffffffffffff1602179055508173ffffffffffffffffffffffffffffffffffffffff168173ffffffffffffffffffffffffffffffffffffffff167f8be0079c531659141344cd1fd0a4f28419497f9722a3daafe3b4186f6b6457e060405160405180910390a35050565b61273d848484846040516024016126bb9493929190614933565b6040516020818303038152906040527fc67ea9d1000000000000000000000000000000000000000000000000000000007bffffffffffffffffffffffffffffffffffffffffffffffffffffffff19166020820180517bffffffffffffffffffffffffffffffffffffffffffffffffffffffff8381831617835250505050612d97565b50505050565b60026004600084815260200190815260200160002060070160006101000a81548160ff0219169083600281111561277d5761277c6131e1565b5b0217905550806004600084815260200190815260200160002060020160006101000a81548173ffffffffffffffffffffffffffffffffffffffff021916908373ffffffffffffffffffffffffffffffffffffffff1602179055506000600160028111156127ed576127ec6131e1565b5b6004600085815260200190815260200160002060070160019054906101000a900460ff166002811115612823576128226131e1565b5b0361288a5761271060065461271061283b9190614986565b60056000868152602001908152602001600020600101546005600087815260200190815260200160002060000154612873919061405c565b61287d91906149ba565b612887919061469a565b90505b612710600654600560008681526020019081526020016000206001015460056000878152602001908152602001600020600001546128c8919061405c565b6128d291906149ba565b6128dc919061469a565b6002546128e9919061405c565b60028190555060056000848152602001908152602001600020600101546005600085815260200190815260200160002060000154612927919061405c565b811115612969576040517f08c379a000000000000000000000000000000000000000000000000000000000815260040161296090614a48565b60405180910390fd5b6000811115612a205760008273ffffffffffffffffffffffffffffffffffffffff168260405161299890613e68565b60006040518083038185875af1925050503d80600081146129d5576040519150601f19603f3d011682016040523d82523d6000602084013e6129da565b606091505b5050905080612a1e576040517f08c379a0000000000000000000000000000000000000000000000000000000008152600401612a1590614ab4565b60405180910390fd5b505b6004600084815260200190815260200160002060010160009054906101000a900473ffffffffffffffffffffffffffffffffffffffff1673ffffffffffffffffffffffffffffffffffffffff166004600085815260200190815260200160002060000160009054906101000a900473ffffffffffffffffffffffffffffffffffffffff1673ffffffffffffffffffffffffffffffffffffffff167f8d434dc1a961654b694dfc1dec7f0fc2616d4d8370564097907a4d932001fd1d856004600088815260200190815260200160002060020160009054906101000a900473ffffffffffffffffffffffffffffffffffffffff1685604051612b2393929190614ad4565b60405180910390a3505050565b6060612b3b82612db1565b612b48608084901b612db1565b604051602001612b59929190614b78565b6040516020818303038152906040529050919050565b606060008290506000815167ffffffffffffffff811115612b9357612b926135b3565b5b6040519080825280601f01601f191660200182016040528015612bc55781602001600182028036833780820191505090505b50905060005b8251811015612d1c576041838281518110612be957612be8614baf565b5b602001015160f81c60f81b60f81c60ff1610158015612c2c5750605a838281518110612c1857612c17614baf565b5b602001015160f81c60f81b60f81c60ff1611155b15612ca8576020838281518110612c4657612c45614baf565b5b602001015160f81c60f81b60f81c612c5e9190614264565b60f81b828281518110612c7457612c73614baf565b5b60200101907effffffffffffffffffffffffffffffffffffffffffffffffffffffffffffff1916908160001a905350612d09565b828181518110612cbb57612cba614baf565b5b602001015160f81c60f81b828281518110612cd957612cd8614baf565b5b60200101907effffffffffffffffffffffffffffffffffffffffffffffffffffffffffffff1916908160001a9053505b8080612d1490614bde565b915050612bcb565b508092505050919050565b60008060006041845114612d70576040517f08c379a0000000000000000000000000000000000000000000000000000000008152600401612d6790614c72565b60405180910390fd5b6020840151925060408401519150606084015160001a90509193909250565b600033905090565b612dae81612da6613011613032565b63ffffffff16565b50565b6000604077ffffffffffffffff0000000000000000000000000000000060001b836fffffffffffffffffffffffffffffffff191616901c7fffffffffffffffff00000000000000000000000000000000000000000000000060001b836fffffffffffffffffffffffffffffffff19161617905060207bffffffff000000000000000000000000ffffffff000000000000000060001b8216901c7fffffffff000000000000000000000000ffffffff00000000000000000000000060001b821617905060107dffff000000000000ffff000000000000ffff000000000000ffff0000000060001b8216901c7fffff000000000000ffff000000000000ffff000000000000ffff00000000000060001b821617905060087eff000000ff000000ff000000ff000000ff000000ff000000ff000000ff000060001b8216901c7fff000000ff000000ff000000ff000000ff000000ff000000ff000000ff00000060001b821617905060087f0f000f000f000f000f000f000f000f000f000f000f000f000f000f000f000f0060001b8216901c60047ff000f000f000f000f000f000f000f000f000f000f000f000f000f000f000f00060001b8316901c17905060077f0f0f0f0f0f0f0f0f0f0f0f0f0f0f0f0f0f0f0f0f0f0f0f0f0f0f0f0f0f0f0f0f60047f06060606060606060606060606060606060606060606060606060606060606068460001c612fc1919061405c565b901c16612fce91906149ba565b8160001c7f3030303030303030303030303030303030303030303030303030303030303030612ffd919061405c565b613007919061405c565b60001b9050919050565b60006a636f6e736f6c652e6c6f679050600080835160208501845afa505050565b6130ac819050919050565b6040518060a0016040528060001515815260200161305961308c565b815260200161306661308c565b81526020016000815260200160006003811115613086576130856131e1565b5b81525090565b6040518060400160405280600060ff168152602001600060ff1681525090565b6130b4614c92565b565b6000604051905090565b600080fd5b600080fd5b6000819050919050565b6130dd816130ca565b81146130e857600080fd5b50565b6000813590506130fa816130d4565b92915050565b600060ff82169050919050565b61311681613100565b811461312157600080fd5b50565b6000813590506131338161310d565b92915050565b600080604083850312156131505761314f6130c0565b5b600061315e858286016130eb565b925050602061316f85828601613124565b9150509250929050565b60008115159050919050565b61318e81613179565b82525050565b61319d81613100565b82525050565b6040820160008201516131b96000850182613194565b5060208201516131cc6020850182613194565b50505050565b6131db816130ca565b82525050565b7f4e487b7100000000000000000000000000000000000000000000000000000000600052602160045260246000fd5b60048110613221576132206131e1565b5b50565b600081905061323282613210565b919050565b600061324282613224565b9050919050565b61325281613237565b82525050565b60e08201600082015161326e6000850182613185565b50602082015161328160208501826131a3565b50604082015161329460608501826131a3565b5060608201516132a760a08501826131d2565b5060808201516132ba60c0850182613249565b50505050565b600060e0820190506132d56000830184613258565b92915050565b6000602082840312156132f1576132f06130c0565b5b60006132ff848285016130eb565b91505092915050565b613311816130ca565b82525050565b600060408201905061332c6000830185613308565b6133396020830184613308565b9392505050565b600080fd5b60006040828403121561335b5761335a613340565b5b81905092915050565b6000806060838503121561337b5761337a6130c0565b5b6000613389858286016130eb565b925050602061339a85828601613345565b9150509250929050565b600073ffffffffffffffffffffffffffffffffffffffff82169050919050565b60006133cf826133a4565b9050919050565b6133df816133c4565b82525050565b60006020820190506133fa60008301846133d6565b92915050565b6040820160008201516134166000850182613194565b5060208201516134296020850182613194565b50505050565b600067ffffffffffffffff82169050919050565b61344c8161342f565b82525050565b61345b81613100565b82525050565b60038110613472576134716131e1565b5b50565b600081905061348382613461565b919050565b600061349382613475565b9050919050565b6134a381613488565b82525050565b600381106134ba576134b96131e1565b5b50565b60008190506134cb826134a9565b919050565b60006134db826134bd565b9050919050565b6134eb816134d0565b82525050565b600061018082019050613507600083018e6133d6565b613514602083018d6133d6565b613521604083018c6133d6565b61352e606083018b613400565b61353b60a083018a613443565b61354860c0830189613452565b61355560e0830188613452565b613563610100830187613308565b613571610120830186613308565b61357f61014083018561349a565b61358d6101608301846134e2565b9c9b505050505050505050505050565b600080fd5b6000601f19601f8301169050919050565b7f4e487b7100000000000000000000000000000000000000000000000000000000600052604160045260246000fd5b6135eb826135a2565b810181811067ffffffffffffffff8211171561360a576136096135b3565b5b80604052505050565b600061361d6130b6565b905061362982826135e2565b919050565b6000604082840312156136445761364361359d565b5b61364e6040613613565b9050600061365e84828501613124565b600083015250602061367284828501613124565b60208301525092915050565b600080600060c08486031215613697576136966130c0565b5b60006136a58682870161362e565b93505060406136b68682870161362e565b92505060806136c786828701613345565b9150509250925092565b6136da81613237565b82525050565b60006020820190506136f560008301846136d1565b92915050565b60006020820190506137106000830184613308565b92915050565b600080fd5b600080fd5b600080fd5b60008083601f84011261373b5761373a613716565b5b8235905067ffffffffffffffff8111156137585761375761371b565b5b60208301915083600182028301111561377457613773613720565b5b9250929050565b600080600060408486031215613794576137936130c0565b5b60006137a2868287016130eb565b935050602084013567ffffffffffffffff8111156137c3576137c26130c5565b5b6137cf86828701613725565b92509250509250925092565b600081519050919050565b600082825260208201905092915050565b60005b838110156138155780820151818401526020810190506137fa565b60008484015250505050565b600061382c826137db565b61383681856137e6565b93506138468185602086016137f7565b61384f816135a2565b840191505092915050565b600060208201905081810360008301526138748184613821565b905092915050565b6000819050919050565b61388f8161387c565b811461389a57600080fd5b50565b6000813590506138ac81613886565b92915050565b60008083601f8401126138c8576138c7613716565b5b8235905067ffffffffffffffff8111156138e5576138e461371b565b5b60208301915083600182028301111561390157613900613720565b5b9250929050565b600080600060408486031215613921576139206130c0565b5b600061392f8682870161389d565b935050602084013567ffffffffffffffff8111156139505761394f6130c5565b5b61395c868287016138b2565b92509250509250925092565b600080fd5b600067ffffffffffffffff821115613988576139876135b3565b5b613991826135a2565b9050602081019050919050565b82818337600083830152505050565b60006139c06139bb8461396d565b613613565b9050828152602081018484840111156139dc576139db613968565b5b6139e784828561399e565b509392505050565b600082601f830112613a0457613a03613716565b5b8135613a148482602086016139ad565b91505092915050565b60008060408385031215613a3457613a336130c0565b5b600083013567ffffffffffffffff811115613a5257613a516130c5565b5b613a5e858286016139ef565b925050602083013567ffffffffffffffff811115613a7f57613a7e6130c5565b5b613a8b858286016139ef565b9150509250929050565b613a9e8161387c565b82525050565b6000602082019050613ab96000830184613a95565b92915050565b60008060808385031215613ad657613ad56130c0565b5b6000613ae48582860161362e565b9250506040613af58582860161362e565b9150509250929050565b613b088161342f565b8114613b1357600080fd5b50565b600081359050613b2581613aff565b92915050565b60038110613b3857600080fd5b50565b600081359050613b4a81613b2b565b92915050565b600080600080600060e08688031215613b6c57613b6b6130c0565b5b6000613b7a88828901613345565b9550506040613b8b88828901613345565b9450506080613b9c88828901613124565b93505060a0613bad88828901613b16565b92505060c0613bbe88828901613b3b565b9150509295509295909350565b613bd4816133c4565b8114613bdf57600080fd5b50565b600081359050613bf181613bcb565b92915050565b60008060008060008060808789031215613c1457613c136130c0565b5b6000613c2289828a01613be2565b9650506020613c3389828a016130eb565b955050604087013567ffffffffffffffff811115613c5457613c536130c5565b5b613c6089828a01613725565b9450945050606087013567ffffffffffffffff811115613c8357613c826130c5565b5b613c8f89828a016138b2565b92509250509295509295509295565b613ca781613179565b82525050565b6000602082019050613cc26000830184613c9e565b92915050565b600080600080600060608688031215613ce457613ce36130c0565b5b6000613cf2888289016130eb565b955050602086013567ffffffffffffffff811115613d1357613d126130c5565b5b613d1f88828901613725565b9450945050604086013567ffffffffffffffff811115613d4257613d416130c5565b5b613d4e888289016138b2565b92509250509295509295909350565b6000604082019050613d726000830184613400565b92915050565b600060208284031215613d8e57613d8d6130c0565b5b6000613d9c84828501613be2565b91505092915050565b7f4e6f7468696e6720746f2077697468647261773b20636f6e747261637420626160008201527f6c616e636520656d707479000000000000000000000000000000000000000000602082015250565b6000613e01602b836137e6565b9150613e0c82613da5565b604082019050919050565b60006020820190508181036000830152613e3081613df4565b9050919050565b600081905092915050565b50565b6000613e52600083613e37565b9150613e5d82613e42565b600082019050919050565b6000613e7382613e45565b9150819050919050565b7f4661696c656420746f2073656e64204574686572000000000000000000000000600082015250565b6000613eb36014836137e6565b9150613ebe82613e7d565b602082019050919050565b60006020820190508181036000830152613ee281613ea6565b9050919050565b7f4e6f2067616d6520696e6465782070726573656e740000000000000000000000600082015250565b6000613f1f6015836137e6565b9150613f2a82613ee9565b602082019050919050565b60006020820190508181036000830152613f4e81613f12565b9050919050565b7f47616d65206973206e6f7420696e207374617274207374617465000000000000600082015250565b6000613f8b601a836137e6565b9150613f9682613f55565b602082019050919050565b60006020820190508181036000830152613fba81613f7e565b9050919050565b7f4d6f766520636f756e7420697320616c72656164792066696e69736865640000600082015250565b6000613ff7601e836137e6565b915061400282613fc1565b602082019050919050565b6000602082019050818103600083015261402681613fea565b9050919050565b7f4e487b7100000000000000000000000000000000000000000000000000000000600052601160045260246000fd5b6000614067826130ca565b9150614072836130ca565b925082820190508082111561408a5761408961402d565b5b92915050565b6000813561409d8161310d565b80915050919050565b60008160001b9050919050565b600060ff6140c0846140a6565b9350801983169250808416831791505092915050565b6000819050919050565b60006140fb6140f66140f184613100565b6140d6565b613100565b9050919050565b6000819050919050565b614115826140e0565b61412861412182614102565b83546140b3565b8255505050565b60008160081b9050919050565b600061ff0061414a8461412f565b9350801983169250808416831791505092915050565b614169826140e0565b61417c61417582614102565b835461413c565b8255505050565b60008101600083018061419581614090565b90506141a1818461410c565b5050506000810160208301806141b681614090565b90506141c28184614160565b5050505050565b6141d38282614183565b5050565b60006141e66020840184613124565b905092915050565b604082016141ff60008301836141d7565b61420c6000850182613194565b5061421a60208301836141d7565b6142276020850182613194565b50505050565b60006080820190506142426000830186613308565b61424f60208301856141ee565b61425c60608301846136d1565b949350505050565b600061426f82613100565b915061427a83613100565b9250828201905060ff8111156142935761429261402d565b5b92915050565b7f546869732077616c6c6574206973206e6f742070617274206f6620746869732060008201527f67616d6500000000000000000000000000000000000000000000000000000000602082015250565b60006142f56024836137e6565b915061430082614299565b604082019050919050565b60006020820190508181036000830152614324816142e8565b9050919050565b600060408284031215614341576143406130c0565b5b600061434f8482850161362e565b91505092915050565b600081905092915050565b600061436f8385614358565b935061437c83858461399e565b82840190509392505050565b6000819050919050565b6143a361439e826130ca565b614388565b82525050565b60006143b6828587614363565b91506143c28284614392565b602082019150819050949350505050565b60006080820190506143e86000830187613a95565b6143f56020830186613452565b6144026040830185613a95565b61440f6060830184613a95565b95945050505050565b600081519050919050565b600061442e82614418565b6144388185613e37565b93506144488185602086016137f7565b80840191505092915050565b600061445f826137db565b6144698185614358565b93506144798185602086016137f7565b80840191505092915050565b60006144918286614423565b915061449d8285614454565b91506144a98284614454565b9150819050949350505050565b60006144c182613100565b91506144cc83613100565b9250828203905060ff8111156144e5576144e461402d565b5b92915050565b60006144f682613100565b915061450183613100565b925082820261450f81613100565b91508082146145215761452061402d565b5b5092915050565b600060a08201905061453d60008301876141ee565b61454a6040830186613308565b6145576060830185613443565b6145646080830184613452565b95945050505050565b7f47616d652068617320616c726561647920737461727465640000000000000000600082015250565b60006145a36018836137e6565b91506145ae8261456d565b602082019050919050565b600060208201905081810360008301526145d281614596565b9050919050565b7f47616d652063726561746f7220616e64206a6f696e65722063616e6e6f74206260008201527f652073616d650000000000000000000000000000000000000000000000000000602082015250565b60006146356026836137e6565b9150614640826145d9565b604082019050919050565b6000602082019050818103600083015261466481614628565b9050919050565b7f4e487b7100000000000000000000000000000000000000000000000000000000600052601260045260246000fd5b60006146a5826130ca565b91506146b0836130ca565b9250826146c0576146bf61466b565b5b828204905092915050565b7f55736572732062696420646f6573206e6f74206d61746368207265717569726560008201527f64206269642076616c7565000000000000000000000000000000000000000000602082015250565b6000614727602b836137e6565b9150614732826146cb565b604082019050919050565b600060208201905081810360008301526147568161471a565b9050919050565b7f6e6f207375636820736563726574000000000000000000000000000000000000600082015250565b6000614793600e836137e6565b915061479e8261475d565b602082019050919050565b600060208201905081810360008301526147c281614786565b9050919050565b7f4e6f7420616c6c6f776564000000000000000000000000000000000000000000600082015250565b60006147ff600b836137e6565b915061480a826147c9565b602082019050919050565b6000602082019050818103600083015261482e816147f2565b9050919050565b7f4f776e61626c653a206e6577206f776e657220697320746865207a65726f206160008201527f6464726573730000000000000000000000000000000000000000000000000000602082015250565b60006148916026836137e6565b915061489c82614835565b604082019050919050565b600060208201905081810360008301526148c081614884565b9050919050565b7f4f776e61626c653a2063616c6c6572206973206e6f7420746865206f776e6572600082015250565b60006148fd6020836137e6565b9150614908826148c7565b602082019050919050565b6000602082019050818103600083015261492c816148f0565b9050919050565b6000608082019050818103600083015261494d8187613821565b905061495c6020830186613308565b818103604083015261496e8185613821565b905061497d6060830184613308565b95945050505050565b6000614991826130ca565b915061499c836130ca565b92508282039050818111156149b4576149b361402d565b5b92915050565b60006149c5826130ca565b91506149d0836130ca565b92508282026149de816130ca565b915082820484148315176149f5576149f461402d565b5b5092915050565b7f416d6f756e742067726561746572207468616e206465706f7369740000000000600082015250565b6000614a32601b836137e6565b9150614a3d826149fc565b602082019050919050565b60006020820190508181036000830152614a6181614a25565b9050919050565b7f5061796d656e74206661696c6564000000000000000000000000000000000000600082015250565b6000614a9e600e836137e6565b9150614aa982614a68565b602082019050919050565b60006020820190508181036000830152614acd81614a91565b9050919050565b6000606082019050614ae96000830186613308565b614af660208301856133d6565b614b036040830184613308565b949350505050565b7f3078000000000000000000000000000000000000000000000000000000000000600082015250565b6000614b41600283614358565b9150614b4c82614b0b565b600282019050919050565b6000819050919050565b614b72614b6d8261387c565b614b57565b82525050565b6000614b8382614b34565b9150614b8f8285614b61565b602082019150614b9f8284614b61565b6020820191508190509392505050565b7f4e487b7100000000000000000000000000000000000000000000000000000000600052603260045260246000fd5b6000614be9826130ca565b91507fffffffffffffffffffffffffffffffffffffffffffffffffffffffffffffffff8203614c1b57614c1a61402d565b5b600182019050919050565b7f696e76616c6964207369676e6174757265206c656e6774680000000000000000600082015250565b6000614c5c6018836137e6565b9150614c6782614c26565b602082019050919050565b60006020820190508181036000830152614c8b81614c4f565b9050919050565b7f4e487b7100000000000000000000000000000000000000000000000000000000600052605160045260246000fdfea2646970667358221220b3bd2b0be3b76c34cf1e4d7162a464bf5c52e65f89f8b0c9b33c06fa88f5171b64736f6c63430008110033",
  "linkReferences": {},
  "deployedLinkReferences": {}
}